S02200005553425F466C6173685F50726F6772616D6D65725F786D6567612E73726563DF
S113000004C1000027C1000025C1000023C1000075
S113001021C100001FC100001DC100001BC1000060
S113002019C1000017C1000015C1000013C1000070
S113003011C100000FC100000DC100000BC1000080
S113004009C1000007C1000005C1000003C1000090
S113005001C10000FFC00000FDC00000FBC00000A3
S1130060F9C00000F7C00000F5C00000F3C00000B4
S1130070F1C00000EFC00000EDC00000EBC00000C4
S1130080E9C00000E7C00000E5C00000E3C00000D4
S1130090E1C00000DFC00000DDC00000DBC00000E4
S11300A0D9C00000D7C00000D5C00000D3C00000F4
S11300B0D1C00000CFC00000CDC00000CBC0000004
S11300C0C9C00000C7C00000C5C00000C3C0000014
S11300D0C1C00000BFC00000BDC00000BBC0000024
S11300E0B9C00000B7C00000B5C00000B3C0000034
S11300F0B1C00000AFC00000ADC00000ABC0000044
S1130100A9C00000A7C00000A5C00000A3C0000053
S1130110A1C000009FC000009DC000009BC0000063
S113012099C0000097C0000095C0000093C0000073
S113013091C000008FC000008DC000008BC0000083
S113014089C0000087C0000085C0000083C0000093
S113015081C000007FC000007DC000007BC00000A3
S113016079C0000077C0000075C0000073C00000B3
S113017071C000006FC000006DC000006BC00000C3
S113018069C0000067C0000065C0000063C00000D3
S113019061C000005FC000005DC000005BC00000E3
S11301A059C0000057C0000055C0000053C00000F3
S11301B051C000004FC000004DC000004BC0000003
S11301C049C0000047C0000045C0000043C0000013
S11301D041C000003FC000003DC000003BC0000023
S11301E039C0000037C0000035C0000033C0000033
S11301F031C000000C9468140C942B155E0F610F31
S1130200640F670F6A0F6D0F700F11241FBECFEFBD
S1130210CDBFDFE3DEBF00E00CBF18BE19BE1ABEBF
S11302201BBE11E2A0E0B0E2E2ECF3E300E00BBF9E
S113023002C007900D92A632B107D9F71BBE24E283
S1130240A6E2B1E201C01D92A23BB207E1F79CD540
S11302500C94DF19D5CEE0EAFAE0918195FFFDCF49
S11302608093A00A089568E083E00E947216E0E497
S1130270F6E080EB818380E4828381ED8093C00883
S1130280089588E080938106E0EAFAE0848383E0BD
S1130290858308958093C308E0ECF8E08281882385
S11302A0ECF78091C308089580E0F4CF0895CF93CC
S11302B0DF93C62FD72FEEDF8D2FECDF8C2FEADFF5
S11302C0DF91CF9108951F93CF93DF93C0E4D6E0DD
S11302D010E11D831E8385E0DDDFE6DF1D83DF91F2
S11302E0CF911F910895EFDF80FDFDCF0895E0E4E5
S11302F0F6E080E18583868386E0CCDFE4DF81FF5E
S1130300FDCF80E1809345060895CF92DF92EF926E
S1130310FF921F93CF93DF936B017C01E4DFE7DF50
S1130320C0E4D6E010E11D831E8380E2B3DFC70181
S1130330B601BDDF1D83DF91CF911F91FF90EF9038
S1130340DF90CF9008955F926F927F928F929F92E9
S1130350AF92BF92CF92DF92EF92FF920F931F93CF
S1130360CF93DF93CDB7DEB76097CDBFDEBF6B0110
S11303707C01B9DFE0E4F6E080E18583868383E0F5
S113038089DFC701B60193DF6894772475F8CE013D
S113039001964C015E0191E1A90EB11C582C692C07
S11303A00F2EF6EDCF2EF0E2DF2EF02D25C07CDFF0
S11303B0F80181938F011F928F93DF92CF920E9455
S11303C003170F900F900F900F900A151B0579F7E4
S11303D089E090E00E941617F70181917F0190E077
S11303E00E941617EA14FB04B9F78BE191E20E940C
S11303F01B177A94772021F07401052D162DD7CF81
S113040080E1809345066096CDBFDEBFDF91CF913A
S11304101F910F91FF90EF90DF90CF90BF90AF901E
S11304209F908F907F906F905F9008958F929F928E
S1130430AF92BF92EF92FF920F931F93CF93DF93EC
S11304404B015C017A01122F4EDFE0E4F6E080E11B
S11304508583868383E01EDFC501B40128DFE701BD
S1130460012F10E00F5F1F4F0E0D1F1D1DDF89931D
S1130470C017D107D9F780E180934506DF91CF916A
S11304801F910F91FF90EF90BF90AF909F908F902E
S113049008958F929F92AF92BF92EF92FF920F9323
S11304A01F93CF93DF934B015C017A01122F1BDF63
S11304B01EDFE0E4F6E080E18583868382E0EADE05
S11304C0C501B401F4DEE701012F10E00F5F1F4FF7
S11304D00E0D1F1D8991DEDEC017D107D9F780E10B
S11304E080934506DF91CF911F910F91FF90EF907C
S11304F0BF90AF909F908F9008951F93CF93DF93F9
S1130500C0E4D6E010E11D831E8386E0C3DE1D83B4
S11305101E8381E0BFDE80E0BDDE1D838CED90E2B2
S11305200E941B17D0DE1F928F938BEE90E29F9355
S11305308F930E9403178CEF90E20E941B1760E0D8
S113054070E180E090E0FFDE0F900F900F900F902D
S1130550DF91CF911F9108951F93CF93DF93C3DE53
S1130560C6DEC0E4D6E010E11D831E838FE992DE6F
S11305709BDE90E06ED798DE90E06BD795DE90E03E
S113058068D71D83DF91CF911F9108951F93CF9357
S1130590DF93A9DEC0E4D6E010E11D831E8387EC5F
S11305A079DEA1DE60E070E08FEF55DE1D83DF9120
S11305B0CF911F910895CF93DF9322E045E953E251
S11305C060E070E0CB0132DFC5E9D3E288812981A4
S11305D090E0982F8827092E000CAA0BBB0B820FE2
S11305E0911DA11DB11D80932A2190932B21A093CD
S11305F02C21B0932D2182E090E0A0E0B0E0809324
S1130600262190932721A0932821B0932921888122
S113061090E01FD7898190E01CD780912A21909186
S11306202B21A0912C21B0912D218F3F9105A10563
S1130630B10509F068F580912A2190912B21A091B0
S11306402C21B0912D21892B8A2B8B2B09F468C086
S113065020912A2130912B2140912C2150912D2140
S11306606091262170912721809128219091292140
S113067045E953E2DBDE40912A2150912B21609120
S11306802C2170912D2165E973E280E0E6D648C003
S11306906091262170912721809128219091292110
S11306A02FEF45E953E2C2DE80912A2190912B215C
S11306B0A0912C21B0912D219150A109B1098093D1
S11306C02A2190932B21A0932C21B0932D2180914A
S11306D0262190912721A0912821B09129219F5F63
S11306E0AF4FBF4F8093262190932721A0932821B9
S11306F0B093292140E051E065E973E280E0ADD692
S113070080912A2190912B21A0912C21B0912D210F
S11307108F3F9105A105B10511F008F0B9CF8BCF3A
S1130720DF91CF910895CF93DF9324E045E953E21D
S113073060E070E180E090E079DEC5E9D3E2888191
S113074049812A813B8190E0A0E0B0E0B82FAA273C
S11307509927882750E060E070E0BA0155274427C4
S1130760840F951FA61FB71F830F911DA11DB11DD7
S1130770422F50E060E070E0762F652F542F44271D
S1130780840F951FA61FB71F80932A2190932B21B6
S1130790A0932C21B0932D2184E090E0A0E0B0E060
S11307A08093262190932721A0932821B093292177
S11307B0888190E04ED6898190E04BD68A8190E082
S11307C048D68B8190E045D680912A2190912B21A7
S11307D0A0912C21B0912D218F3F9105A105B10548
S11307E009F090F580912A2190912B21A0912C2140
S11307F0B0912D21892B8A2B8B2B09F472C0209167
S11308002A2130912B2140912C2150912D2180912E
S1130810262190912721A0912821B0912921BC0162
S1130820CD01705F8F4F9F4F45E953E2FFDD40914B
S11308302A2150912B2160912C2170912D2165E961
S113084073E280E00AD64DC0809126219091272141
S1130850A0912821B0912921BC01CD01705F8F4F57
S11308609F4F2FEF45E953E2E1DD80912A219091DA
S11308702B21A0912C21B0912D219150A109B109D6
S113088080932A2190932B21A0932C21B0932D2186
S11308908091262190912721A0912821B09129218E
S11308A09F5FAF4FBF4F8093262190932721A09342
S11308B02821B093292140E051E065E973E280E00A
S11308C0CCD580912A2190912B21A0912C21B091FB
S11308D02D218F3F9105A105B10511F008F0B4CF8A
S11308E081CFDF91CF91089581E008950895CF924B
S11308F0DF92EF92FF920F931F93CF93DF93C82F52
S11309008B01823050F180912A2190912B21A0916A
S11309102C21B0912D21892B8A2B8B2BF1F480E192
S113092080932F2160E070E0CB01EFDCDCDCF80188
S1130930808190E0A0E0B0E0BA2FA92F982F8827FB
S11309402181820F911DA11DB11D80932A219093B5
S11309502B21A0932C21B0932D21EC2EF12C8091EE
S11309602E219701280F311D2F3F310591F18CF174
S1130970D0912E21D195CD2ED12C80912E2190E095
S1130980A601B8018B569C4D0E94FA1680912E2127
S11309908C0F80932E218091262190912721A09164
S11309A02821B0912921BC01CD0166272FEF45E90B
S11309B053E26FDD80912E218823D1F0A7014D1BD6
S11309C05109B8016C0D7D1D85E993E20E94FA1668
S11309D00FC080912E2190E04C2F50E0B8018B562F
S11309E09C4D0E94FA1680912E218C0F80932E210B
S11309F08091262190912721A0912821B09129212D
S1130A008C0F911DA11DB11D809326219093272148
S1130A10A0932821B0932921809126219091272108
S1130A20A0912821B091292140912A2150912B2174
S1130A3060912C2170912D210297A109B10984178D
S1130A409507A607B707E9F420912E218091262166
S1130A5090912721A0912821B0912921BC01CD0199
S1130A60662745E953E215DD8FEF90E0F2D410924A
S1130A702F211092262110922721109228211092C2
S1130A802921DF91CF911F910F91FF90EF90DF907B
S1130A90CF900895CF92DF92EF92FF920F931F931E
S1130AA0CF93DF93182FEB01843008F484C0809136
S1130AB02A2190912B21A0912C21B0912D21892BB9
S1130AC08A2B8B2B09F077C080E280932F210BDCDB
S1130AD0888190E0A0E0B0E0782F6627552744276E
S1130AE09981892F90E0A0E0B0E0DC019927882764
S1130AF0840F951FA61FB71F2B81820F911DA11D67
S1130B00B11D4A8150E060E070E0762F652F542FCC
S1130B104427840F951FA61FB71F80932A21909303
S1130B202B21A0932C21B0932D21109226211092D9
S1130B302721109228211092292140912621509199
S1130B4027216091282170912921505F6F4F7F4F99
S1130B5040932621509327216093282170932921C3
S1130B60609126217091272180912821909129213B
S1130B70CCDBB9DB40912A2150912B2160912C21AF
S1130B8070912D218091262190912721A0912821D7
S1130B90B09129214C5F5F4F6F4F7F4F84179507AA
S1130BA0A607B70750F2109226211092272110921F
S1130BB0282110922921C12ED12C80912E21960119
S1130BC0280F311D2F3F3105A9F1A4F100912E21E9
S1130BD00195E02EF12C80912E2190E0A701BE0119
S1130BE08B569C4D0E94FA1680912E21810F809382
S1130BF02E218091262190912721A0912821B09126
S1130C0029218827BC01CD01705F8F4F9F4F2FEFA3
S1130C1045E953E23EDC80912E218823D1F0A601E0
S1130C20401B5109BE016E0D7F1D85E993E20E94B0
S1130C30FA160FC080912E2190E0412F50E0BE01A2
S1130C408B569C4D0E94FA1680912E21810F809321
S1130C502E218091262190912721A0912821B091C5
S1130C602921810F911DA11DB11D809326219093EF
S1130C702721A0932821B0932921809126219091A6
S1130C802721A0912821B091292140912A21509116
S1130C902B2160912C2170912D210497A109B10978
S1130CA084179507A607B70701F520912E21809197
S1130CB0262190912721A0912821B09129218827CC
S1130CC0BC01CD01705F8F4F9F4F45E953E2E1DBDB
S1130CD08FEF90E0BED310922F2110922621109214
S1130CE027211092282110922921DF91CF911F9161
S1130CF00F91FF90EF90DF90CF900895CF93DF9303
S1130D00CDB7DEB7C054D109CDBFDEBF80912F214E
S1130D1081111AC061E070E0CE010196B3D28981DD
S1130D2080932F2110922A2110922B2110922C2192
S1130D3010922D2110922621109227211092282101
S1130D401092292110922E2160E470E0CE010196C8
S1130D5099D290912F21903119F0903231F009C03D
S1130D60BE016F5F7F4FC3DD04C0BE016F5F7F4F65
S1130D7091DEC05CDF4FCDBFDEBFDF91CF91089520
S1130D808FEF80939524089580E180934506F8942D
S1130D900E943316BBD467DA74DA80E090E2809361
S1130DA0AE249093AF2487E08093A200789480913E
S1130DB03021882319F0A1DB1092302180912F215A
S1130DC08136A1F058F48131E9F018F48130B1F0A2
S1130DD0EECF8132D9F08033E9F0E9CF833691F058
S1130DE068F0843699F08536A9F0E1CF60E070E1CF
S1130DF080E090E0A8DA10922F21D9CFADDB1092D9
S1130E002F21D5CFD8DB10922F21D1CF8CDC10929B
S1130E102F21CDCFBBDB10922F21C9CF8091462249
S1130E20815080934622089580E0089580E00895DB
S1130E30809196248823CCF480768032B9F5809111
S1130E4097248132A9F580919C2490919D24079741
S1130E5089F5E6E9F4E284E592E28087918787E008
S1130E6090E08287938781E008958076803221F52F
S1130E7080919724803221F0823201F180E008953C
S1130E8080919C2490919D240797D1F4E6E9F4E2A3
S1130E9082E697E08487958784E592E2808791874C
S1130EA087E090E08287938781E0089580E0089549
S1130EB080E0089580E0089580E0089581E0089539
S1130EC080E00895089510924622109252221092C2
S1130ED05322E8E4F2E281EA808380E28183128291
S1130EE013821482158282E090E0868397831086B1
S1130EF01186E4E5F2E280E092ECA1E0B0E08083C8
S1130F009183A283B3831482158288E08683ECDC08
S1130F10882329F0909146229F5F9093462208955A
S1130F20FF920F931F93CF93DF931F92CDB7DEB73A
S1130F308091342181119EC00E942E12882351F089
S1130F4000913521109136210E943B120817190790
S1130F5059F490C000913521109136210E94361227
S1130F600817190709F486C08FB78983F894198183
S1130F7000913721E02FF0E0EE0FFF1FE85CFE4DFB
S1130F8080819181892B09F58091312190913221C1
S1130F90019680933121909332210E942E12811167
S1130FA007C080913121909132218436910558F007
S1130FB00E942E12882349F0809131219091322190
S1130FC08032934010F41FBF55C01092312110920B
S1130FD0322180913321811106C081E0011180E02A
S1130FE08093372104C081E0011180E0082F81E063
S1130FF0809334211FBF10E0F801EE0FFF1FE85C5F
S1131000FE4DFF24F394808191818034910509F48D
S1131010F12CFF2091F00E942E12882339F00E94B7
S11310203B1280933521909336210BC00E943612D7
S1131030809335219093362104C01092352110926B
S11310403621F801EE0FFF1FE85CFE4D208131814F
S1131050A8010024569547950794569547950794FB
S1131060542F402D445C5E4D04E418E06F2D81E85C
S11310700E941F130F90DF91CF911F910F91FF904A
S1131080089580E04DCF0895811119C02091372132
S113109081E090E0222311F080E090E0880F991F16
S11310A0FC01E85CFE4D10821182109233211092F3
S11310B03421672B11F080E063DE80E031CF0895A6
S11310C080914522815080934522809145220EDCF7
S11310D0109244220895CF93DF931F92CDB7DEB7C9
S11310E08FB78983F89449812091BD213091BE2125
S11310F0E091BF21F0E0EE0FFF1FE054FE4D808130
S113110091814FBF821B930B0F90DF91CF91089574
S1131110E2DF21E0892B09F420E0822F08950F9368
S11311201F93CF93DF931F92CDB7DEB78FB7898319
S1131130F89499812091BF218091BC21811110C024
S11311406091BD217091BE21022F10E0F801EE0FD5
S1131150FF1FE054FE4D408151816417750718F458
S11311609FBF80E027C01092BD211092BE2181E074
S1131170211180E08093BF2181E08093BC219FBF37
S113118080E0C6DF882311F080E0B8DDA8010024E8
S1131190569547950794569547950794542F402D97
S11311A04C535E4D02E119E020E430E061E082E05E
S11311B00E941F130F90DF91CF911F910F910895FB
S11311C0109245221092342110923321109237212B
S11311D0E8E3F1E210821182128213821092352127
S11311E01092362180E09CDE1092BC211092BF2127
S11311F0E0ECF1E210821182128213821092BD217E
S11312001092BE2180E08BDF882359F09091452213
S11312109F5F9093452290914522913011F49093D1
S1131220442208950F931F93811129C08091BF21F7
S1131230E1E08111E0E0842F61157105A9F4F0E08B
S11312400024F695E7950794F695E7950794FE2F05
S1131250E02DAF014C535E4D02E119E020E430E093
S113126061E00E941F130BC0F0E0EE0FFF1FE0547B
S1131270FE4D608371831092BC2180E050DF1F918A
S11312800F910895EF92FF920F931F93CF93DF93E3
S11312901F921F92CDB7DEB7DC01909144229923AF
S11312A009F443C08FB78983F89489814091BD21A3
S11312B05091BE212091BF2130E0F901EE0FFF1FB4
S11312C0E054FE4D00811181041B150B8FBF780182
S11312D06017710708F47B01E114F10449F1CD01B1
S11312E00024369527950794369527950794322F31
S11312F0202DB901640F751F6C537E4DA7010E9408
S1131300FA168FB78A83F8942A818091BD2190912F
S1131310BE21E80EF91EE092BD21F092BE212FBF3E
S113132080E0FDDE802F912F05C080E090E002C0B8
S1131330802F912F0F900F90DF91CF911F910F91DC
S1131340FF90EF900895CF93DF931F92CDB7DEB750
S11313508FB78983F894998180913721E82FF0E041
S1131360EE0FFF1FE85CFE4D2081318120343105F2
S113137089F44091342141110DC040913321411130
S113138009C021E020933321811120E020933721EB
S113139020E030E09FBF80E490E0821B930B0F902D
S11313A0DF91CF910895CFDF21E0892B09F420E06C
S11313B0822F0895FF920F931F93CF93DF931F9271
S11313C0CDB7DEB7F62E172F01E080915A2289306F
S11313D009F000E080E0E7DF811107C0809144223A
S11313E08111F8CF80E090E02DC08FB78983F89405
S11313F02981E0913721F0E0DF01AA0FBB1FA85C2F
S1131400BE4D8D919C911197AC014F5F5F4F4D93F1
S11314105C930024F695E7950794F695E795079471
S1131420FE2FE02D8E0F9F1FFC01E45CFE4DF08229
S11314302FBF002329F0F12E110F110B00E0CACFAA
S113144081E090E00F90DF91CF911F910F91FF9079
S11314500895BC0180E0AECF08955F926F927F92B1
S11314608F929F92AF92BF92CF92DF92EF92FF92B0
S11314700F931F93CF93DF931F92CDB7DEB74B012A
S11314805A0180915A22893011F4AA0CBB1C689429
S1131490662466F8712C80E086DF811107C0809194
S11314A044228111F8CF8A2D9B2D3AC08FB78983AE
S11314B0F89459800091372110E0F801EE0FFF1FD6
S11314C0E85CFE4DE080F180C3018E199F0965013F
S11314D08A159B0508F46C01C8010024969587952C
S11314E00794969587950794982F802D8E0D9F1DB0
S11314F0A601B401845C9E4D0E94FA16000F111FD0
S1131500F801E85CFE4DEC0CFD1CE082F1825FBE4C
S11315108C0C9D1CAC18BD0809F0BDCF80E090E098
S11315200F90DF91CF911F910F91FF90EF90DF907B
S1131530CF90BF90AF909F908F907F906F905F906F
S11315400895E0916022F09161220190F081E02DF4
S1131550228133812E0F3F1FFC014081E40FF11DD6
S1131560E217F307B8F481818430B9F0861309C017
S113157005C081818430A1F0861303C08E2F9F2F74
S113158008958081E80FF11DE217F30790F380E0DE
S113159090E0089580E090E0089580E090E0089560
S11315A080E090E00895809198248F7759C708953A
S11315B090916222992381F1E0916022F09161225D
S11315C00190F081E02D9481891740F5E0935E222B
S11315D0F0935F22228133812E0F3F1FE217F3071E
S11315E0F8F49181943061F49281981309C0938145
S11315F0961306C0E0935E22F0935F2281E0089583
S11316009081E90FF11DE217F30758F3E0935E228E
S1131610F0935F2280E0089580E0089580E00895CB
S113162080E00895EF92FF921F93CF93DF93C82F2A
S113163060E0BEDF182F882381F1A0916022B09171
S11316406122EC2FF0E0EE0FFF1F12968D919C911A
S11316501397E80FF91FE080F180D7011696ED91FA
S1131660FC9117971995682F8C2FA2DF182F8823C8
S1131670A1F0C0915E22D0915F2265E0CE0161DFCE
S1131680EC01892B21F08A810E942F14F6CFD70117
S11316901296ED91FC9113971995812FDF91CF91BB
S11316A01F91FF90EF9008951F93CF93DF93182F0E
S11316B07FDF882339F1C0915E22D0915F2265E0FB
S11316C0CE013FDFEC01892B41F04C815D816B81C0
S11316D08A81DBD68111F3CF15C0A0916022B0912D
S11316E06122E12FF0E0EE0FFF1F12968D919C9185
S11316F01397E80FF91F0190F081E02D0190F0811C
S1131700E02D1995DF91CF911F91089525C6089575
S1131710CF93809162228823C1F0E0916022F091FE
S113172061220190F081E02D8481882371F0C0E072
S11317308C2F78DFCF5FE0916022F09161220190DD
S1131740F081E02D8481C81798F31092622281E021
S113175090E08093662290936722CF910895CF936F
S113176080916222882349F1A0916022B091612284
S1131770ED91FC91119784818823F9F0C0E0EC2F5E
S1131780F0E0EE0FFF1F12968D919C911397E80FD6
S1131790F91F0190F081E02D0084F185E02D309750
S11317A009F01995CF5FA0916022B0916122ED916B
S11317B0FC9111978481C81710F3CF9108950F936A
S11317C01F93CF93DF93E6E9F4E21286138614861F
S11317D0158616861786808188230CF063C22091B3
S11317E09C2430919D242115310509F056C251C223
S11317F08F7109F0A7C090919724963079F09830B2
S113180009F496C091119EC02230310509F0CAC175
S113181062E070E086E692E231D64DC2809198246F
S113182090919924292F332722303105A9F024F4EB
S11318302130310541F0ADC123303105D9F12F30CC
S1131840310551F1A6C18091722090917320DC0181
S11318506C9170E013D65DC0E0917220F09173201A
S11318602189821708F09EC19927880F991F880F34
S1131870991FE0917420F0917520E80FF91F808181
S11318809181FC0162817381F9D5E0919E24F091EC
S11318909F2482E081833DC08091762090917720BF
S11318A0009709F47FC1DC0112966D917C91139726
S11318B0E5D52FC099278130910591F058F08230F9
S11318C0910509F4F4C1039709F06CC127E08DE197
S11318D091E209C064E070E08EE690E2CFD519C0D1
S11318E08BE590E222E1382FA4E2B0E2E82FF92F51
S11318F0819190E08D939D938E2F831B8217C0F36B
S1131900622F660F6E5F6093222070E082E290E2A5
S1131910B5D5E6E9F4E2868197812285338582177D
S1131920930708F0C8C18093A0249093A124C3C155
S11319302130310509F036C161E070E082E692E2BF
S11319409DD5B9C18130E1F5909197249A30C1F5C4
S11319502130310509F026C180916222882309F4DF
S113196021C1C0919A24D0919B24009160221091AE
S11319706122D801ED91FC918481C81708F012C14D
S113198060E08C2F15DE882309F40CC1CE01992761
S1131990880F991FD8011296ED91FC911397E80FC7
S11319A0F91F0190F081E02D86819781FC01199542
S11319B08093642261E070E084E692E25FD57BC1AB
S11319C0823009F0EFC0809197248111E4C0223065
S11319D0310509F0E7C080919A24DFD590E0809327
S11319E05C2290935D2262E070E08CE592E246D541
S11319F062C18F7109F083C090919724933009F4E8
S1131A00CCC018F49130A1F07AC0953019F0993017
S1131A1039F175C080919C2490919D24892B09F003
S1131A20C1C083ED9AE08093A2249093A32443C180
S1131A3080919C2490919D24892B09F0B3C08091BE
S1131A40982490919924019709F0ACC08091662262
S1131A50909167228D7F80936622909367222BC199
S1131A6080919C2490919D24892B09F09BC0FBD4E8
S1131A70882309F497C0209198243091992433271E
S1131A80E0917220F0917320818990E0821793078E
S1131A9008F488C03DDE8091982490919924809325
S1131AA06222882309F407C199278150904C880F3A
S1131AB0991F880F991FE0917420F0917520E80F09
S1131AC0F91FE0936022F09361220190F081E02DF0
S1131AD08481882309F4EFC0C0E060E08C2FE4DD4A
S1131AE0882309F45FC0CF5FE0916022F091612206
S1131AF00190F081E02D8481C81778F3DCC0813037
S1131B00E1F4909197249B30C1F480919C249091AE
S1131B109D24892B09F046C080916222882309F410
S1131B2041C0E6E9F4E2C481D2818C2F7BDD8823B5
S1131B30C9F16D2F8C2FB8DD33C0823099F58091B7
S1131B409724813019F0833089F029C080919C2436
S1131B5090919D24892B31F580919824909199241A
S1131B60892B01F580919A2433D51AC080919C2445
S1131B7090919D24892BB1F480919824909199247B
S1131B80892B81F4C6E9D4E28C8120D68C8183D65A
S1131B9007C080E005C080E003C080E001C080E0B1
S1131BA081118AC0809196248F71813071F5809162
S1131BB06222882351F100919A2410919B24C091B0
S1131BC06022D0916122E881F98184810817E8F4C8
S1131BD060E0802FEDDC8823C1F0F801FF27CF01FE
S1131BE0880F991FEA81FB81E80FF91FC081D18119
S1131BF0EE81FF811995682F802FDADC882329F084
S1131C00EC81FD811995811157C0809196248F71C3
S1131C10823009F040C0809162228823B1F1A09102
S1131C206022B0916122ED91FC9111978481882307
S1131C3071F1C0E0EC2FF0E0EE0FFF1F12968D91D2
S1131C409C911397E80FF91F00811181D801169612
S1131C50ED91FC9117971995682F8C2FA9DC882397
S1131C6059F1D8011496ED91FC91159719958111AC
S1131C7023C0CF5FA0916022B0916122ED91FC91CD
S1131C8011979481C917B0F217C080E015C080E0A5
S1131C9013C080E011C080E00FC0982F907609F047
S1131CA081CFA6CD982F907609F07CCFA2CE22E1E9
S1131CB088E490E218CE81E0DF91CF911F910F91DB
S1131CC00895CF93DF931F921F92CDB7DEB7811192
S1131CD026C0909194239923F9F09091A72491110F
S1131CE001C0FFCF9FB79A83F8942A81E6EAF4E211
S1131CF09181915091832FBF0FC09091A7249F3F52
S1131D0009F4FFCF9FB79983F8942981E6EAF4E2B6
S1131D1091819F5F91832FBF8093942305C09091FD
S1131D209423992351F3F8CF0F900F90DF91CF9123
S1131D3008950F93E8ECF4E080818F7D80838081A7
S1131D408F7D8083E8E6F3E202E0059310926A2334
S1131D5010926B2300E2069300E40693E0E6F3E2BC
S1131D6000E40693E6E9F4E21486158616861786DF
S1131D7012861386109251230F9108950F9385E0D4
S1131D8080935123E9E6F3E204E00593E1E6F3E20C
S1131D9004E005930F9108950F9383E080935123FA
S1131DA010926A2310926B23E8E6F3E202E00693B2
S1131DB00F910895E091A224F091A324309709F0A3
S1131DC0199508950F93CF93DF9380915123833016
S1131DD019F4F0DFAEDF5EC080914D2390914E2365
S1131DE0C091A024D091A124C81BD90B71F52091D6
S1131DF04F2330915023820F931F80934F2390934E
S1131E00502320919C2430919D248217930721F024
S1131E1080916822882341F084E080935123E0E696
S1131E20F3E202E0069336C0E091A424F091A524E5
S1131E30309799F01995882381F010924D231092D0
S1131E404E23C091A024D091A124C034D10528F000
S1131E5010926822C0E4D0E003C081E0809368223D
S1131E60E4E5F3E2C68BD78B80914D2390914E230A
S1131E7020919E2430919F24280F391F208F318F69
S1131E80C80FD91FC0934D23D0934E23E8E6F3E245
S1131E9002E00693DF91CF910F910895FC018181B7
S1131EA0E82FE7708E2F90E0FC013197E730F105C1
S1131EB0D0F48827E250FF4F8F4F93C780E190E022
S1131EC0089580E290E0089580E490E0089580E829
S1131ED090E0089580E091E0089580E092E0089514
S1131EE08FEF93E0089588E090E00895282F2F70F5
S1131EF030E0220F331F082E000C990B8827990F0E
S1131F00881F9927820F931F02979C01220F331F6A
S1131F10220F331F220F331F820F931F87519D4DB2
S1131F2008950F93CF938091CC0480FF64C081E027
S1131F308093CC04E0E6F3E200E80693E8E6F3E2FB
S1131F4000E806938093CA04E0E6F3E200E1069316
S1131F5080915123882329F08350823008F42ADFAA
S1131F60E8DE8091622390916323089709F045C0CD
S1131F7088E0EDE0F3E2A6E9B4E201900D928A95DF
S1131F80E1F7E8ECF4E08081806280838081806204
S1131F90808315DCC82F811103C0F0DEC1E02EC0A0
S1131FA08091962488236CF410924F23109250232E
S1131FB010924D2310924E2382E08093512302DF2E
S1131FC01DC080919C2490919D24892B11F4E4DE02
S1131FD015C010924F231092502310924D2310924B
S1131FE04E2381E080935123E0E6F3E202E006937E
S1131FF000E2069303C0C0E001C0C1E08C2FCF9182
S11320000F9108958F929F92AF92BF92DF92EF92B9
S1132010FF920F931F93CF93DF93D82E67DF8C012A
S1132020BD2CBB1CBB24BB1CCD2DCF70D0E0CC0F72
S1132030DD1FCB0DD11DCE01880F991F880F991F6D
S1132040880F991F9C01205A3C4D7901C90126DF54
S11320504C01BB2009F479C0FE01EE0FFF1FEE0F07
S1132060FF1FEE0FFF1FEC5AFC4D22893389D80164
S113207015968D919C911697820F931F15968D93AB
S11320809C93169713962D913C911497821793075E
S113209009F445C0281B390B2115B4E03B0738F07F
S11320A02FEF33E0C901B40188D6281B390BF8019E
S11320B0808181FF09C0C901B4017FD641E0892B29
S11320C009F040E0842F01C080E0D8019C9180FB9E
S11320D091F99C93FE01EE0FFF1FEE0FFF1FEE0F11
S11320E0FF1FEC5AFC4D128A138A268737871196F4
S11320F02D913C91129715968D919C911697820F74
S1132100931FCC0FDD1FCC0FDD1FCC0FDD1FCC596F
S1132110DC4D88839983F70102E00693E4C0D8017B
S11321208C9181FFCDC08D7F8C93CC0FDD1FCC0FA4
S1132130DD1FCC0FDD1FCC5ADC4D1A8A1B8A1E868C
S11321401F86F70102E00693CEC0FE01EE0FFF1FCB
S1132150EE0FFF1FEE0FFF1FEC5AFC4DA684B78451
S1132160D8018C9182FF19C01196ED91FC911297C0
S113217015962D913C91169713968D919C911497D9
S1132180B4011BD6B0E4DB9EB0011124675D7D4D24
S1132190AC01CF01820F931F2DD6F8012581368122
S11321A02A0D3B1D258336838381948182179307EF
S11321B068F485839683CC0FDD1FCC0FDD1FCC0F15
S11321C0DD1FCC5ADC4D8A899B897AC0FE01EE0F53
S11321D0FF1FEE0FFF1FEE0FFF1FEC5AFC4D42894D
S11321E053894A155B0509F06BC02817390709F4B0
S11321F067C0AC01421B530B9A01211554E035070B
S113220050F02FEF33E0C901B401D7D5D901A81B91
S1132210B90BCD0107C0C901B401CFD5F901E81B41
S1132220F90BCF01FE01EE0FFF1FEE0FFF1FEE0FA4
S1132230FF1FEC5AFC4D168617868815990500F584
S1132240D8018C9184608C93B0E4DB9EC00111248E
S1132250875D9D4DFE01EE0FFF1FEE0FFF1FEE0F7A
S1132260FF1FEC59FC4D80839183CC0FDD1FCC0FF5
S1132270DD1FCC0FDD1FCC5ADC4D8A8A9B8A1CC023
S1132280F8014181528125813681240F351FFE01D9
S1132290EE0FFF1FEE0FFF1FEE0FFF1FEC59FC4D5B
S11322A020833183CC0FDD1FCC0FDD1FCC0FDD1F4E
S11322B0CC5ADC4D8A8B9B8BF70102E0069313C04A
S11322C0D8018C9180FF0FC08E7F8C931796ED916F
S11322D0FC911897309739F015966D917C9116976B
S11322E04D2D80E01995DF91CF911F910F91FF90B3
S11322F0EF90DF90BF90AF909F908F9008951F93C1
S1132300CF93DF931F92CDB7DEB78FB78983F8944D
S1132310198181E0D6DCEAECF4E080E4808380E299
S11323208083E1ECF4E0808181608083A9ECB4E0F7
S11323308C9182608C93E8ECF4E0808180648083EB
S11323408C9181608C938081806880831FBF0F9003
S1132350DF91CF911F9108950F931F93CF93DF9334
S11323601F921F92CDB7DEB700E610E0F80110828D
S113237080E3CED4E0ECF4E080818064808381E06B
S1132380F80180838FB78A83F8941A81E4E5F3E235
S11323901586158A158E15A215A615AAE9EEF2E280
S11323A080818E7F8083E2EFF2E280818E7F808362
S11323B0EBEFF2E280818E7F8083E4E0F3E28081C0
S11323C08E7F80836AE170E082E0E7D48F3F19F06A
S11323D08093FA0403C08FE18093FA046BE170E008
S11323E082E0DBD48F3F19F08093FB0403C08FE1BC
S11323F08093FB04E0ECF4E0808182608083808140
S11324008068808380818061808380E693E2868314
S113241097838081806280838FEF8093C504E8EC8A
S1132420F4E0808181608083109294238091AB24B6
S11324308F3F09F4FFCF8FB78983F8949981E6EA37
S1132440F4E285818F5F85839FBF59DF1FBF0F90A3
S11324500F90DF91CF911F910F91089580E008951F
S11324608093C30408958091C304089580919023B8
S113247090919123089580E090E00895E6E9F4E2D4
S113248080879187628773870895282F2F7030E0A3
S1132490220F331F082E000C990B8827990F881FD1
S11324A09927820F931FFC01EE0FFF1FEE0FFF1FF2
S11324B0EE0FFF1FEC5AFC4D2585207C09F069C006
S11324C06370613011F018F404C020EC03C020E8FC
S11324D001C020E440385105E9F050F44032510580
S11324E0A9F040345105A1F040315105D9F40CC094
S11324F0411532E0530791F04F3F33E0530781F029
S11325004115514079F408C041E00DC042E00BC0D0
S113251043E009C044E007C045E005C046E003C00D
S113252047E001C040E0FC01EE0FFF1FEE0FFF1F6C
S1132530EE0FFF1FEC5AFC4D158636E03487242B32
S11325402587FC01EE0FFF1FEE0FFF1FEE0FFF1F8D
S1132550EC5AFC4D2585207C203C69F4FC01EE0FEF
S1132560FF1FEE0FFF1FEE0FFF1FEC5AFC4D2585DA
S11325702770273081F0880F991F880F991F880FC3
S1132580991FFC01EC5AFC4D85858062858781E0AA
S1132590089580E0089581E00895E82FEF70F0E059
S11325A0EE0FFF1F082E000C990B8827990F881F28
S11325B09927E80FF91FEE0FFF1FEE0FFF1FEE0F15
S11325C0FF1FEC5AFC4D858582FB882780F908950E
S11325D00F93282F2F7030E0A901440F551F282F87
S11325E0082E000C330B2227330F221F3327240F0E
S11325F0351FA901440F551F440F551F440F551F84
S1132600FA01E05AFC4D01E00693FA01EC5AFC4D44
S1132610958592FF11C0FA01EC5AFC4D95859B7F7C
S1132620958764DCFC01808180FF06C08E7F8083F7
S11326300780F085E02D199581E00F9108955F9250
S11326406F927F928F929F92AF92BF92CF92DF92BE
S1132650EF92FF920F931F93CF93DF931F92CDB707
S1132660DEB7782E662E4A01590140DC6C01572CE6
S1132670551C5524551C872D8F70E82EF12CEE0C1B
S1132680FF1CE50CF11CF701EE0FFF1FEE0FFF1FFF
S1132690EE0FFF1FEC5AFC4D8585807C09F481C048
S11326A0F701EE0FFF1FEE0FFF1FEE0FFF1FEC5A97
S11326B0FC4D8585807C803C61F0F701EE0FFF1FA7
S11326C0EE0FFF1FEE0FFF1FEC5AFC4D858582FDB8
S11326D06AC08FB78983F8948981F601908190FF4D
S11326E003C08FBF512C60C0F6019081916090832C
S11326F08FBF81829282A382B4821582168207835D
S11327001087611006C091E0A114B10419F090E0A3
S113271001C091E0F601808190FB81F98B7F808379
S1132720552061F0F701EE0FFF1FEE0FFF1FEE0FB4
S1132730FF1FEC5AFC4D128A138A2EC0F701EE0FCC
S1132740FF1FEE0FFF1FEE0FFF1FEC5AFC4D858598
S1132750807C803CA1F4C701880F991F880F991FC2
S1132760880F991F805A9C4D99DBBC01C50125D364
S1132770892B29F0F60180818E7F808315C0F701B3
S1132780EE0FFF1FEE0FFF1FEE0FFF1FEC5AFC4D65
S113279016861786128A138A872D34DC552453949F
S11327A003C0512C01C0512C852D0F90DF91CF9186
S11327B01F910F91FF90EF90DF90CF90BF90AF905B
S11327C09F908F907F906F905F900895FF920F93EA
S11327D01F93CF93DF93182FF82EFF1CFF24FF1CA9
S11327E0C82FCF70D0E0CC0FDD1FCF0DD11D7EDB05
S11327F0DC01FE01EE0FFF1FEE0FFF1FEE0FFF1FA8
S1132800E05AFC4D02E005938C9180FF22C08E7F3C
S11328108C931796ED91FC9118973097D1F0FF2087
S113282059F0CC0FDD1FCC0FDD1FCC0FDD1FCC5AB0
S1132830DC4D6A897B890AC0CC0FDD1FCC0FDD1FFC
S1132840CC0FDD1FCC5ADC4D6E857F85412F81E096
S11328501995DF91CF911F910F91FF900895CF9318
S1132860C82FB4DFEC2FEF70F0E0EE0FFF1F8C2FBA
S1132870CC0F990B8827990F881F9927E80FF91F08
S1132880EE0FFF1FEE0FFF1FEE0FFF1FEC5AFC4D64
S11328901586CF910895E82FEF70F0E0EE0FFF1F3B
S11328A0282F082E000C330B2227330F221F332727
S11328B0E20FF31FEE0FFF1FEE0FFF1FEE0FFF1FC0
S11328C0EC5AFC4D95859460958780DF81E00895EE
S11328D01F920F920FB60F92112408B60F9218BED2
S11328E009B60F9219BE0BB60F921BBE0F932F930E
S11328F03F934F935F936F937F938F939F93AF9384
S1132900BF93EF93FF938091CB04882334F480E842
S11329108093CA040E94AF0B86C08091CB0482FFCF
S113292020C084E08093CA048091682386FF7BC022
S11329308091CC0481FD77C0F4DA811174C0809158
S11329405123813011F428DA6EC0843009F06BC051
S1132950E9E6F3E204E00593E1E6F3E204E005933B
S113296062C08091CB0481FF59C082E08093CA0485
S11329708091602386FF57C08091CC0481FD53C0B1
S1132980D0DA811150C080915123823041F484E027
S113299080935123E0E6F3E202E0069344C08330DF
S11329A009F041C0E9E6F3E204E00593E1E6F3E26D
S11329B004E0059338C080E18093CA0481E006DF17
S11329C081E804DF82E002DF82E800DF0E94880BF6
S11329D01092C304E4E5F3E2158696E0948783E459
S11329E08587158A948B858B8DE093E2808B918B00
S11329F0A0D919C08091CB0486FF06C080E48093DF
S1132A00CA0480E05ED90FC08091CB0485FF0BC05F
S1132A1080E28093CA0481E054D905C08091CB043C
S1132A2084FDC9CFE7CFFF91EF91BF91AF919F9103
S1132A308F917F916F915F914F913F912F910F9162
S1132A400F900BBE0F9009BE0F9008BE0F900FBEE3
S1132A500F901F9018951F920F920FB60F9211248A
S1132A6008B60F9218BE09B60F9219BE0AB60F9295
S1132A701ABE0BB60F921BBE0F931F932F933F9357
S1132A804F935F936F937F938F939F93AF93BF9372
S1132A90CF93DF93EF93FF938091CC0481FD03C028
S1132AA040DA8111C3C082E08093CC048091C504D4
S1132AB08195880FE0E6F3E2E81BF109208131817A
S1132AC02056334236952795369527953695279582
S1132AD0822F869520FD02C090E001C090E8890F06
S1132AE0E82FEF70F0E0EE0FFF1F282F082E000CE8
S1132AF0330B2227330F221F3327E20FF31FDF018B
S1132B00AA0FBB1FAA0FBB1FAA0FBB1FAC5ABC4DF9
S1132B101C969C9195FF8AC0EE0FFF1FEE0FFF1FBE
S1132B20EE0FFF1FE05AFC4D00E20693811179C0BD
S1132B3080915123843019F43DD9FBD877C000919A
S1132B406223109163238091A0249091A124C091C9
S1132B504D23D0914E239E01200F311F82179307DE
S1132B6018F48C010C1B1D0B80919E2490919F24C2
S1132B70A8016DE073E28C0F9D1F3CD1C00FD11FE3
S1132B80C0934D23D0934E230034110569F48091F2
S1132B904F23909150238C0F9D1F20919C243091A2
S1132BA09D248217930780F0E6E9F4E2C287D38775
S1132BB00684F785E02D309729F01995811102C01C
S1132BC0DDD834C0E9D832C08091A0249091A124EA
S1132BD0C817D907F9F4E091A424F091A5243097FB
S1132BE011F4CCD823C01995811102C0C7D81EC0D6
S1132BF020914F233091502380914D2390914E2367
S1132C00820F931F80934F239093502310924D2350
S1132C1010924E23E0E6F3E202E0069300E206930C
S1132C2005C0803811F4CED801C0ECD9FF91EF91E2
S1132C30DF91CF91BF91AF919F918F917F916F91D0
S1132C405F914F913F912F911F910F910F900BBE68
S1132C500F900ABE0F9009BE0F9008BE0F900FBED2
S1132C600F901F901895CF93DF93CDB7DEB72597BC
S1132C70CDBFDEBF6CE170E082E08FD08A836DE16E
S1132C8070E082E08AD0898389819A81019621F457
S1132C9080E493E289839A8389819A818B839C83DC
S1132CA0E0E6F0E082838C8183838091510084FD8F
S1132CB00FC08FB78D83F8949D81E0E5F0E080E14B
S1132CC085838081806180839FBF818184FFFDCF64
S1132CD064E080E490E06BD02596CDBFDEBFDF9149
S1132CE0CF910895CF93DF931F92CDB7DEB79FB7EF
S1132CF09983F8949981E82FF0E0E059FF4F6095AB
S1132D008081682360839FBF0F90DF91CF910895E6
S1132D10CF93DF931F921F92CDB7DEB7863011F0A9
S1132D2060E001C068E18091510081FD2AC08FB745
S1132D308A83F8949A81E0E5F0E080818260808360
S1132D409FBF818181FFFDCF8FB78983F8949981DB
S1132D50A0E5B0E016968C911697897F16968C9311
S1132D601697E0E6F0E080E885838BEB8683169681
S1132D708C911697846016968C93808181608083F1
S1132D809FBF636084E490E012D060E480E0AADF37
S1132D900F900F90DF91CF9108954091CA01E62FD3
S1132DA0F72F8093CA0184914093CA0108951BBEF2
S1132DB0FC0128ED24BF60830895AA1BBB1B51E1CD
S1132DC007C0AA1FBB1FA617B70710F0A61BB70B97
S1132DD0881F991F5A95A9F780959095BC01CD013C
S1132DE00895EE0FFF1F881F8BBF0790F691E02D0B
S1132DF01BBE1994FB01DC0102C001900D924150ED
S1132E005040D8F70895CF93DF93CDB7DEB7AE0126
S1132E104A5F5F4FFA0161917191AF018091AE24D5
S1132E209091AF2438D0DF91CF9108956091AE2472
S1132E307091AF242EC20F931F93CF93DF93E09131
S1132E40AE24F091AF24238121FF1BC08C01D0E07C
S1132E50C0E0F80181918F016091AE247091AF249C
S1132E60DB011896ED91FC911997882331F019959F
S1132E70892B79F3DFEFCFEFECCF8AE01995892B1B
S1132E8019F08FEF9FEF02C08D2F9C2FDF91CF9110
S1132E901F910F9108952F923F924F925F926F92DC
S1132EA07F928F929F92AF92BF92CF92DF92EF92D6
S1132EB0FF920F931F93CF93DF93CDB7DEB72C9779
S1132EC0CDBFDEBF7C016B018A01FC011682178233
S1132ED0838181FFB0C1CE0101964C01F70193813A
S1132EE0F60193FD859193FF81916F01882309F485
S1132EF09EC1853239F493FD859193FF81916F01D1
S1132F00853221F4B70190E0C4D1E8CF512C312CA3
S1132F1020E02032A0F48B3269F030F4803259F092
S1132F20833269F420612CC08D3239F0803339F456
S1132F30216026C02260246023C0286021C027FDB0
S1132F4027C030ED380F3A3078F426FF06C0FAE097
S1132F505F9E300D1124532E13C08AE0389E300D2D
S1132F601124332E20620CC08E3221F426FD5FC161
S1132F70206406C08C3611F4206802C0883641F4FF
S1132F80F60193FD859193FF81916F018111C1CF6A
S1132F90982F9F7D9554933028F40C5F1F4FFFE3C7
S1132FA0F9830DC0833631F0833771F0833509F02E
S1132FB057C021C0F801808189830E5F1F4F4424CC
S1132FC04394512C540114C03801F2E06F0E711C6B
S1132FD0F801A080B18026FF03C0652D70E002C017
S1132FE06FEF7FEFC5012C8749D12C0183012C851C
S1132FF02F77222E16C03801F2E06F0E711CF801F3
S1133000A080B18026FF03C0652D70E002C06FEF81
S11330107FEFC5012C8727D12C012C852068222E17
S1133020830123FC19C0832D90E048165906A0F4AF
S1133030B70180E290E02DD13A94F5CFF50127FC59
S1133040859127FE81915F01B70190E022D1311073
S11330503A94F1E04F1A51084114510479F7DEC053
S1133060843611F0893631F5F80127FF07C06081F5
S11330707181828193810C5F1F4F08C060817181CF
S1133080072E000C880B990B0E5F1F4F2F76722EA4
S113309097FF09C090958095709561957F4F8F4FEC
S11330A09F4F2068722E2AE030E0A4012AD1A82E76
S11330B0A81843C0853729F42F7EB22E2AE030E0C9
S11330C025C0F22FF97FBF2E8F36C1F018F4883552
S11330D079F0ADC0803719F0883721F0A8C02F2FC0
S11330E02061B22EB4FE0DC08B2D8460B82E09C0B1
S11330F024FF0AC09F2F9660B92E06C028E030E056
S113310005C020E130E002C020E132E0F801B7FE62
S113311007C060817181828193810C5F1F4F06C05B
S11331206081718180E090E00E5F1F4FA401E9D0BF
S1133130A82EA818FB2DFF777F2E76FE0BC0372D07
S11331403E7FA51450F474FE0AC072FC08C0372DEB
S11331503E7E05C0BA2C372D03C0BA2C01C0B52C55
S113316034FF0DC0FE01EA0DF11D8081803311F49E
S1133170397E09C032FF06C0B394B39404C0832FD0
S1133180867809F0B39433FD12C030FF06C05A2C80
S1133190B31418F4530C5B18B32CB31460F4B701D4
S11331A080E290E03C8775D0B3943C85F6CFB314AD
S11331B010F43B1801C0312C34FF11C0B70180E377
S11331C090E03C8766D03C8532FF16C031FD03C0D9
S11331D088E790E002C088E590E0B7010CC0832F37
S11331E0867851F031FF02C08BE201C080E237FDE6
S11331F08DE2B70190E04DD0A51430F4B70180E31F
S113320090E047D05A94F8CFAA94F401EA0DF11D46
S11332108081B70190E03DD0A110F6CF332009F4AE
S11332205DCEB70180E290E034D03A94F7CFF70155
S11332308681978102C08FEF9FEF2C96CDBFDEBFB2
S1133240DF91CF911F910F91FF90EF90DF90CF907E
S1133250BF90AF909F908F907F906F905F904F90B2
S11332603F902F900895FC0105906150704001102B
S1133270D8F7809590958E0F9F1F0895FC0161509B
S1133280704001900110D8F7809590958E0F9F1F84
S113329008950F931F93CF93DF93FB01238121FDA7
S11332A003C08FEF9FEF28C022FF16C046815781CD
S11332B0248135814217530744F4A081B1819D01D3
S11332C02F5F3F4F208331838C93268137812F5F7B
S11332D03F4F2683378310C0EB01092F182F00843A
S11332E0F185E02D1995892BE1F68E819F81019658
S11332F08E839F83812F902FDF91CF911F910F9108
S11333000895FA01AA27283051F1203181F1E89477
S11333106F936E7F6E5F7F4F8F4F9F4FAF4FB1E0C4
S11333203ED0B4E03CD0670F781F891F9A1FA11DBF
S1133330680F791F8A1F911DA11D6A0F711D811DC0
S1133340911DA11D20D009F468943F912AE0269F85
S113335011243019305D3193DEF6CF010895462FE4
S11333604770405D4193B3E00FD0C9F7F6CF462FC5
S11333704F70405D4A3318F0495D31FD405241932E
S113338002D0A9F7EACFB4E0A695979587957795EB
S11333906795BA95C9F700976105710508959B0172
S11333A0AC010A2E06945795479537952795BA95FB
S11333B0C9F7620F731F841F951FA01D0895F89409
S10533C0FFCF39
S11333C200000002000000002B0100000000E008E1
S11333D2600814071607410863070E071807160743
S11333E200000003000000000000000000000000D4
S11333F200000000000000000000000000000000C7
S11334020000000000000000444959205265666C27
S11334126F77204F76656E20563100546865416996
S11334226D6C657373456C656374726F6E0004032F
S11334320904C4207820000080207C2018200E205B
S113344209024300020100C0000904000001020253
S113345201000524001001042402020524060001CF
S11334620524010301070582034000100904010039
S1133472020A00000007058102400000070502025B
S1133482400000001201000202000040EB03042489
S1133492000101020301253032782000546573745F
S11334A2696E672057726974650D0053746174758F
S11334B2733A203078253032780D0A0052656164FF
S11334C22032353620627974657320746F20636FFD
S11334D26E6669726D2065726173650D0031322EFC
S10934E22E2E45460000F9
S9030000FC
