S02200005553425F466C6173685F50726F6772616D6D65725F786D6567612E73726563DF
S113000004C1000027C1000025C1000023C1000075
S113001021C100001FC100001DC100001BC1000060
S113002019C1000017C1000015C1000013C1000070
S113003011C100000FC100000DC100000BC1000080
S113004009C1000007C1000005C1000003C1000090
S113005001C10000FFC00000FDC00000FBC00000A3
S1130060F9C00000F7C00000F5C00000F3C00000B4
S1130070F1C00000EFC00000EDC00000EBC00000C4
S1130080E9C00000E7C00000E5C00000E3C00000D4
S1130090E1C00000DFC00000DDC00000DBC00000E4
S11300A0D9C00000D7C00000D5C00000D3C00000F4
S11300B0D1C00000CFC00000CDC00000CBC0000004
S11300C0C9C00000C7C00000C5C00000C3C0000014
S11300D0C1C00000BFC00000BDC00000BBC0000024
S11300E0B9C00000B7C00000B5C00000B3C0000034
S11300F0B1C00000AFC00000ADC00000ABC0000044
S1130100A9C00000A7C00000A5C00000A3C0000053
S1130110A1C000009FC000009DC000009BC0000063
S113012099C0000097C0000095C0000093C0000073
S113013091C000008FC000008DC000008BC0000083
S113014089C0000087C0000085C0000083C0000093
S113015081C000007FC000007DC000007BC00000A3
S113016079C0000077C0000075C0000073C00000B3
S113017071C000006FC000006DC000006BC00000C3
S113018069C0000067C0000065C0000063C00000D3
S113019061C000005FC000005DC000005BC00000E3
S11301A059C0000057C0000055C0000053C00000F3
S11301B051C000004FC000004DC000004BC0000003
S11301C049C0000047C0000045C0000043C0000013
S11301D041C000003FC000003DC000003BC0000023
S11301E039C0000037C0000035C0000033C0000033
S11301F031C000000C94AC120C946F13A20DA50D29
S1130200A80DAB0DAE0DB10DB40D11241FBECFEF73
S1130210CDBFDFE3DEBF00E00CBF18BE19BE1ABEBF
S11302201BBE11E2A0E0B0E2EAE4F0E300E00BBFA1
S113023002C007900D92A23AB107D9F71BBE25E27E
S1130240A2EAB1E201C01D92AE32B207E1F7DAD3FD
S11302500C942318D5CEE0EAFAE0918195FFFDCF06
S11302608093A00A089568E083E00E94B614E0E455
S1130270F6E080EB818380E4828381ED8093C00883
S1130280089588E080938106E0EAFAE0848383E0BD
S1130290858308958093C308E0ECF8E08281882385
S11302A0ECF78091C308089580E0F4CF0895CF93CC
S11302B0DF93C62FD72FEEDF8D2FECDF8C2FEADFF5
S11302C0DF91CF9108951F93CF93DF93C0E4D6E0DD
S11302D010E11D831E8385E0DDDFE6DF1D83DF91F2
S11302E0CF911F910895EFDF80FDFDCF0895E0E4E5
S11302F0F6E080E18583868386E0CCDFE4DF81FF5E
S1130300FDCF80E1809345060895CF92DF92EF926E
S1130310FF921F93CF93DF936B017C01E4DFE7DF50
S1130320C0E4D6E010E11D831E8380E2B3DFC70181
S1130330B601BDDF1D83DF91CF911F91FF90EF9038
S1130340DF90CF9008955F926F927F928F929F92E9
S1130350AF92BF92CF92DF92EF92FF920F931F93CF
S1130360CF93DF93CDB7DEB76097CDBFDEBF6B0110
S11303707C01B9DFE0E4F6E080E18583868383E0F5
S113038089DFC701B60193DF6894772475F8CE013D
S113039001964C015E0191E1A90EB11C582C692C07
S11303A00F2EF6EDCF2EF0E2DF2EF02D25C07CDFF0
S11303B0F80181938F011F928F93DF92CF920E9455
S11303C047150F900F900F900F900A151B0579F7A2
S11303D089E090E00E945A15F70181917F0190E035
S11303E00E945A15EA14FB04B9F78CE291E20E94C8
S11303F05F157A94772021F07401052D162DD7CF3F
S113040080E1809345066096CDBFDEBFDF91CF913A
S11304101F910F91FF90EF90DF90CF90BF90AF901E
S11304209F908F907F906F905F9008958F929F928E
S1130430AF92BF92EF92FF920F931F93CF93DF93EC
S11304404B015C017A01122F4EDFE0E4F6E080E11B
S11304508583868383E01EDFC501B40128DFE701BD
S1130460012F10E00F5F1F4F0E0D1F1D1DDF89931D
S1130470C017D107D9F780E180934506DF91CF916A
S11304801F910F91FF90EF90BF90AF909F908F902E
S113049008958F929F92AF92BF92EF92FF920F9323
S11304A01F93CF93DF934B015C017A01122F1BDF63
S11304B01EDFE0E4F6E080E18583868382E0EADE05
S11304C0C501B401F4DEE701012F10E00F5F1F4FF7
S11304D00E0D1F1D8991DEDEC017D107D9F780E10B
S11304E080934506DF91CF911F910F91FF90EF907C
S11304F0BF90AF909F908F9008951F93CF93DF93F9
S1130500C0E4D6E010E11D831E8386E0C3DE1D83B4
S11305101E8381E0BFDE80E0BDDE1D838CED90E2B2
S11305200E945F15D0DE1F928F938BEE90E29F9313
S11305308F930E9447158CEF90E20E945F1560E054
S113054070E180E090E0FFDE0F900F900F900F902D
S1130550DF91CF911F9108951F93CF93DF938DE186
S113056091E20E945F15BFDEC2DEC0E4D6E010E176
S11305701D831E838FE98EDE97DE90E0AED594DE78
S113058090E0ABD591DE90E0A8D51D83DF91CF91AB
S11305901F9108951F93CF93DF938EE291E20E94FF
S11305A05F15A1DEC0E4D6E010E11D831E8387EC55
S11305B071DE99DE60E070E08FEF4DDE1D83DF9128
S11305C0CF911F910895CF93DF9322E041E154E24C
S11305D060E070E0CB012ADFC1E1D4E288812981A7
S11305E090E0982F8827092E000CAA0BBB0B820FD2
S11305F0911DA11DB11D8093A6219093A721A093C5
S1130600A821B093A92182E090E0A0E0B0E080931B
S1130610A2219093A321A093A421B093A521888122
S113062090E05BD5898190E058D58091A621909186
S1130630A721A091A821B091A92139812881BF9334
S1130640AF939F938F931F923F931F922F938CE3AB
S113065091E29F938F930E9447158091A6219091D8
S1130660A721A091A821B091A9212DB73EB7265F5B
S11306703F4F2DBF3EBF8F3F9105A105B10509F046
S113068068F58091A6219091A721A091A821B0910D
S1130690A921892B8A2B8B2B09F468C02091A621D0
S11306A03091A7214091A8215091A9216091A221C4
S11306B07091A3218091A4219091A52141E154E25C
S11306C0B5DE4091A6215091A7216091A821709197
S11306D0A92161E174E280E004D548C06091A221BF
S11306E07091A3218091A4219091A5212FEF41E144
S11306F054E29CDE8091A6219091A721A091A8218B
S1130700B091A9219150A109B1098093A621909398
S1130710A721A093A821B093A9218091A22190910F
S1130720A321A091A421B091A5219F5FAF4FBF4FFA
S11307308093A2219093A321A093A421B093A521F7
S113074040E051E061E174E280E0CBD48091A621E5
S11307509091A721A091A821B091A9218F3F910543
S1130760A105B10511F008F0B9CF8BCFDF91CF917E
S1130770089581E008950895EF92FF920F931F93D7
S1130780CF93DF93CDB7DEB7C054D109CDBFDEBF61
S11307908091AB21811128C061E070E0CE01019607
S11307A0B5D389818093AB211092A6211092A72101
S11307B01092A8211092A9211092A2211092A32193
S11307C01092A4211092A5211092AA218091AB210C
S11307D01F928F938EE591E29F938F930E9447150A
S11307E00F900F900F900F9060E470E0CE0101968F
S11307F08DD38C018091AB21803109F0F4C003309A
S1130800110508F441C08091A6219091A721A091DF
S1130810A821B091A921892B8A2B8B2BA9F580E1E2
S11308208093AB2160E070E0CB016FDD5CDD8981FA
S113083090E0982F8827092E000CAA0BBB0B2A8165
S1130840820F911DA11DB11D8093A6219093A72114
S1130850A093A821B093A9218091A6219091A721CA
S1130860A091A821B091A921BF93AF939F938F9397
S11308708CE691E29F938F930E9447150F900F90FF
S11308800F900F900F900F908091AA219801280F3C
S1130890311D2F3F3105B1F1A8F1E090AA21E19477
S11308A0F12C8091AA2190E0A701BE016F5F7F4FD8
S11308B08F5E9B4D0E943E158091AA21800F8093EC
S11308C0AA218091A2219091A321A091A421B09169
S11308D0A521BC01CD0166272FEF41E154E2D9DD0A
S11308E08091AA218823F1F0A8014E195F0961E0E3
S11308F070E06C0F7D1F6E0D7F1D81E194E20E94FC
S11309003E1510C08091AA2190E0A801BE016F5F3E
S11309107F4F8F5E9B4D0E943E158091AA21800FD0
S11309208093AA218091A2219091A321A091A42136
S1130930B091A521800F911FA11DB11D8093A2210B
S11309409093A321A093A421B093A5218091A221E7
S11309509091A321A091A421B091A521BF93AF931D
S11309609F938F9387E791E29F938F930E944715FC
S11309708091A2219091A321A091A421B091A521BD
S11309804091A6215091A7216091A8217091A9219D
S11309900297A109B1090F900F900F900F900F903B
S11309A00F9084179507A607B707E9F42091AA21A9
S11309B08091A2219091A321A091A421B091A5217D
S11309C0BC01CD01662741E154E263DD8FEF90E085
S11309D084D31092AB211092A2211092A3211092E1
S11309E0A4211092A521C05CDF4FCDBFDEBFDF91F3
S11309F0CF911F910F91FF90EF9008958FEF809307
S1130A001125089580E180934506F8940E94771497
S1130A10C1D429DC36DC80E090E280932A259093CF
S1130A202B2587E08093A200789481E891E20E94CC
S1130A305F158091AC21882319F05FDD1092AC2101
S1130A408091AB218136A1F058F48131E1F018F4A2
S1130A508130A9F0EECF8132F1F08033F9F0E9CFA3
S1130A60833689F060F08436B1F08536B9F0E1CF91
S1130A7060E070E0CB0167DC1092AB21DACF6CDD73
S1130A801092AB21D6CF9FDD8AE891E20E945F15D8
S1130A901092AB21CECF1092AB21CBCF7BDD109245
S1130AA0AB21C7CF8091C22281508093C222089586
S1130AB080E0089580E00895809112258823CCF485
S1130AC080768032B9F5809113258132A9F5809121
S1130AD0182590911925079789F5E2E1F5E280ED53
S1130AE092E28087918787E090E08287938781E014
S1130AF008958076803221F580911325803221F08B
S1130B00823201F180E00895809118259091192591
S1130B100797D1F4E2E1F5E286EA95E084879587C8
S1130B2080ED92E28087918787E090E082879387C7
S1130B3081E0089580E0089580E0089580E00895BC
S1130B4080E0089581E0089580E00895089510926A
S1130B50C2221092CE221092CF22E4ECF2E281EA79
S1130B60808380E28183128213821482158282E060
S1130B7090E08683978310861186E0EDF2E280E0B0
S1130B8092ECA1E0B0E080839183A283B3831482CA
S1130B90158288E08683EDDD882329F09091C222B6
S1130BA09F5F9093C2220895FF920F931F93CF9358
S1130BB0DF931F92CDB7DEB78091B02181119EC023
S1130BC00E947210882351F00091B1211091B2213A
S1130BD00E947F100817190759F490C00091B121A1
S1130BE01091B2210E947A100817190709F486C0DF
S1130BF08FB78983F89419810091B321E02FF0E035
S1130C00EE0FFF1FEC54FE4D80819181892B09F575
S1130C108091AD219091AE2101968093AD21909366
S1130C20AE210E947210811107C08091AD21909174
S1130C30AE218436910558F00E947210882349F041
S1130C408091AD219091AE218032934010F41FBF6A
S1130C5055C01092AD211092AE218091AF21811127
S1130C6006C081E0011180E08093B32104C081E0DB
S1130C70011180E0082F81E08093B0211FBF10E0B4
S1130C80F801EE0FFF1FEC54FE4DFF24F394808116
S1130C9091818034910509F4F12CFF2091F00E9498
S1130CA07210882339F00E947F108093B1219093B1
S1130CB0B2210BC00E947A108093B1219093B2218B
S1130CC004C01092B1211092B221F801EE0FFF1F5F
S1130CD0EC54FE4D20813181A8010024569547959E
S1130CE00794569547950794542F402D48545E4DCC
S1130CF008E816E06F2D81E80E9463110F90DF91E0
S1130D00CF911F910F91FF90089580E04DCF0895EA
S1130D10811119C02091B32181E090E0222311F0C8
S1130D2080E090E0880F991FFC01EC54FE4D108286
S1130D3011821092AF211092B021672B11F080E044
S1130D405DDE80E031CF08958091C122815080938F
S1130D50C1228091C1220FDD1092C0220895CF9349
S1130D60DF931F92CDB7DEB78FB78983F89449819B
S1130D702091392230913A22E0913B22F0E0EE0FAB
S1130D80FF1FE45CFD4D808191814FBF821B930B5B
S1130D900F90DF91CF910895E2DF21E0892B09F4D0
S1130DA020E0822F08950F931F93CF93DF931F9218
S1130DB0CDB7DEB78FB78983F894998120913B2210
S1130DC080913822811110C06091392270913A22A9
S1130DD0022F10E0F801EE0FFF1FE45CFD4D40818F
S1130DE051816417750718F49FBF80E027C01092E3
S1130DF0392210923A2281E0211180E080933B2233
S1130E0081E0809338229FBF80E0C6DF882311F001
S1130E1080E0B2DCA80100245695479507945695C6
S1130E2047950794542F402D405C5D4D06E517E02F
S1130E3020E430E061E082E00E9463110F90DF91D2
S1130E40CF911F910F9108951092C1221092B02159
S1130E501092AF211092B321E4EBF1E210821182DF
S1130E60128213821092B1211092B22180E09CDE92
S1130E701092382210923B22ECE3F2E210821182AB
S1130E80128213821092392210923A2280E08BDF70
S1130E90882359F09091C1229F5F9093C122909131
S1130EA0C122913011F49093C02208950F931F939F
S1130EB0811129C080913B22E1E08111E0E0842F7F
S1130EC061157105A9F4F0E00024F695E7950794FF
S1130ED0F695E7950794FE2FE02DAF01405C5D4D3C
S1130EE006E517E020E430E061E00E9463110BC0E6
S1130EF0F0E0EE0FFF1FE45CFD4D60837183109200
S1130F00382280E050DF1F910F910895EF92FF92F5
S1130F100F931F93CF93DF931F921F92CDB7DEB72A
S1130F20DC019091C022992309F443C08FB78983CF
S1130F30F89489814091392250913A2220913B22A0
S1130F4030E0F901EE0FFF1FE45CFD4D00811181DB
S1130F50041B150B8FBF78016017710708F47B0120
S1130F60E114F10449F1CD01002436952795079445
S1130F70369527950794322F202DB901640F751FDC
S1130F80605C7D4DA7010E943E158FB78A83F8945B
S1130F902A818091392290913A22E80EF91EE0923A
S1130FA03922F0923A222FBF80E0FDDE802F912F6C
S1130FB005C080E090E002C0802F912F0F900F9029
S1130FC0DF91CF911F910F91FF90EF900895CF93F0
S1130FD0DF931F92CDB7DEB78FB78983F8949981D9
S1130FE08091B321E82FF0E0EE0FFF1FEC54FE4D8B
S1130FF0208131812034310589F44091B02141119F
S11310000DC04091AF21411109C021E02093AF21CF
S1131010811120E02093B32120E030E09FBF80E4E1
S113102090E0821B930B0F90DF91CF910895CFDF57
S113103021E0892B09F420E0822F0895FF920F9379
S11310401F93CF93DF931F92CDB7DEB7F62E172FE2
S113105001E08091D622893009F000E080E0E7DFEA
S1131060811107C08091C0228111F8CF80E090E007
S11310702DC08FB78983F8942981E091B321F0E0E2
S1131080DF01AA0FBB1FAC54BE4D8D919C911197EB
S1131090AC014F5F5F4F4D935C930024F695E79549
S11310A00794F695E7950794FE2FE02D8E0F9F1F6A
S11310B0FC01E854FE4DF0822FBF002329F0F12EED
S11310C0110F110B00E0CACF81E090E00F90DF9187
S11310D0CF911F910F91FF900895BC0180E0AECF96
S11310E008955F926F927F928F929F92AF92BF9278
S11310F0CF92DF92EF92FF920F931F93CF93DF93E0
S11311001F92CDB7DEB74B015A018091D6228930A8
S113111011F4AA0CBB1C6894662466F8712C80E058
S113112086DF811107C08091C0228111F8CF8A2DFA
S11311309B2D3AC08FB78983F89459800091B321CD
S113114010E0F801EE0FFF1FEC54FE4DE080F1803B
S1131150C3018E199F0965018A159B0508F46C016A
S1131160C8010024969587950794969587950794CA
S1131170982F802D8E0D9F1DA601B40188549E4D7D
S11311800E943E15000F111FF801EC54FE4DEC0CAB
S1131190FD1CE082F1825FBE8C0C9D1CAC18BD0866
S11311A009F0BDCF80E090E00F90DF91CF911F91C7
S11311B00F91FF90EF90DF90CF90BF90AF909F90F2
S11311C08F907F906F905F900895E091DC22F09172
S11311D0DD220190F081E02D228133812E0F3F1F0B
S11311E0FC014081E40FF11DE217F307B8F481819B
S11311F08430B9F0861309C005C081818430A1F020
S1131200861303C08E2F9F2F08958081E80FF11D50
S1131210E217F30790F380E090E0089580E090E017
S1131220089580E090E0089580E090E00895809132
S113123014258F7759C708959091DE22992381F15F
S1131240E091DC22F091DD220190F081E02D948187
S1131250891740F5E093DA22F093DB22228133816F
S11312602E0F3F1FE217F307F8F49181943061F4D5
S11312709281981309C09381961306C0E093DA22F1
S1131280F093DB2281E008959081E90FF11DE217CC
S1131290F30758F3E093DA22F093DB2280E0089519
S11312A080E0089580E0089580E00895EF92FF9231
S11312B01F93CF93DF93C82F60E0BEDF182F8823DE
S11312C081F1A091DC22B091DD22EC2FF0E0EE0F51
S11312D0FF1F12968D919C911397E80FF91FE080E0
S11312E0F180D7011696ED91FC9117971995682F07
S11312F08C2FA2DF182F8823A1F0C091DA22D0917D
S1131300DB2265E0CE0161DFEC01892B21F08A81CB
S11313100E947312F6CFD7011296ED91FC911397A8
S11313201995812FDF91CF911F91FF90EF90089530
S11313301F93CF93DF93182F7FDF882339F1C09158
S1131340DA22D091DB2265E0CE013FDFEC01892B6C
S113135041F04C815D816B818A81DBD68111F3CFB1
S113136015C0A091DC22B091DD22E12FF0E0EE0F58
S1131370FF1F12968D919C911397E80FF91F01900E
S1131380F081E02D0190F081E02D1995DF91CF914E
S11313901F91089525C60895CF938091DE22882356
S11313A0C1F0E091DC22F091DD220190F081E02D8A
S11313B08481882371F0C0E08C2F78DFCF5FE091C7
S11313C0DC22F091DD220190F081E02D8481C817A8
S11313D098F31092DE2281E090E08093E2229093D1
S11313E0E322CF910895CF938091DE22882349F19F
S11313F0A091DC22B091DD22ED91FC9111978481C2
S11314008823F9F0C0E0EC2FF0E0EE0FFF1F1296F6
S11314108D919C911397E80FF91F0190F081E02DB5
S11314200084F185E02D309709F01995CF5FA091E4
S1131430DC22B091DD22ED91FC9111978481C817D3
S113144010F3CF9108950F931F93CF93DF93E2E1AD
S1131450F5E2128613861486158616861786808111
S113146088230CF063C22091182530911925211589
S1131470310509F056C251C28F7109F0A7C090918D
S11314801325963079F0983009F496C091119EC0D6
S11314902230310509F0CAC162E070E082EE92E2C6
S11314A031D64DC28091142590911525292F3327CB
S11314B022303105A9F024F42130310541F0ADC1C9
S11314C023303105D9F12F30310551F1A6C1809176
S11314D0722090917320DC016C9170E013D65DC092
S11314E0E0917220F09173202189821708F09EC147
S11314F09927880F991F880F991FE0917420F09104
S11315007520E80FF91F80819181FC01628173814C
S1131510F9D5E0911A25F0911B2582E081833DC025
S11315208091762090917720009709F47FC1DC01A7
S113153012966D917C911397E5D52FC09927813030
S1131540910591F058F08230910509F4F4C10397A4
S113155009F06CC127E08AE991E209C064E070E017
S11315608EE690E2CFD519C08BE590E222E1382FC8
S1131570A4E2B0E2E82FF92F819190E08D939D933E
S11315808E2F831B8217C0F3622F660F6E5F6093EA
S1131590222070E082E290E2B5D5E2E1F5E28681B4
S11315A09781228533858217930708F0C8C18093F9
S11315B01C2590931D25C3C12130310509F036C186
S11315C061E070E08EED92E29DD5B9C18130E1F524
S11315D0909113259A30C1F52130310509F026C1C7
S11315E08091DE22882309F421C1C0911625D0916F
S11315F017250091DC221091DD22D801ED91FC9198
S11316008481C81708F012C160E08C2F15DE88238E
S113161009F40CC1CE019927880F991FD80112969D
S1131620ED91FC911397E80FF91F0190F081E02DE3
S113163086819781FC0119958093E02261E070E036
S113164080EE92E25FD57BC1823009F0EFC08091D9
S113165013258111E4C02230310509F0E7C08091DF
S11316601625DFD590E08093D8229093D92262E0AA
S113167070E088ED92E246D562C18F7109F083C0B3
S113168090911325933009F4CCC018F49130A1F053
S11316907AC0953019F0993039F175C080911825C8
S11316A090911925892B09F0C1C087E199E08093B5
S11316B01E2590931F2543C18091182590911925CB
S11316C0892B09F0B3C080911425909115250197B9
S11316D009F0ACC08091E2229091E3228D7F809347
S11316E0E2229093E3222BC1809118259091192531
S11316F0892B09F09BC0FBD4882309F497C020915F
S11317001425309115253327E0917220F091732030
S1131710818990E08217930708F488C03DDE8091A8
S11317201425909115258093DE22882309F407C19E
S113173099278150904C880F991F880F991FE09129
S11317407420F0917520E80FF91FE093DC22F093E8
S1131750DD220190F081E02D8481882309F4EFC01B
S1131760C0E060E08C2FE4DD882309F45FC0CF5F24
S1131770E091DC22F091DD220190F081E02D848162
S1131780C81778F3DCC08130E1F4909113259B30C5
S1131790C1F48091182590911925892B09F046C030
S11317A08091DE22882309F441C0E2E1F5E2C4819C
S11317B0D2818C2F7BDD8823C9F16D2F8C2FB8DD6E
S11317C033C0823099F580911325813019F083302C
S11317D089F029C08091182590911925892B31F51C
S11317E08091142590911525892B01F5809116255A
S11317F033D51AC08091182590911925892BB1F4FD
S11318008091142590911525892B81F4C2E1D5E2AC
S11318108C8120D68C8183D607C080E005C080E00F
S113182003C080E001C080E081118AC0809112254C
S11318308F71813071F58091DE22882351F10091FE
S1131840162510911725C091DC22D091DD22E88164
S1131850F98184810817E8F460E0802FEDDC8823A7
S1131860C1F0F801FF27CF01880F991FEA81FB819E
S1131870E80FF91FC081D181EE81FF811995682F8E
S1131880802FDADC882329F0EC81FD811995811100
S113189057C0809112258F71823009F040C0809129
S11318A0DE228823B1F1A091DC22B091DD22ED91FA
S11318B0FC9111978481882371F1C0E0EC2FF0E052
S11318C0EE0FFF1F12968D919C911397E80FF91F4D
S11318D000811181D8011696ED91FC911797199505
S11318E0682F8C2FA9DC882359F1D8011496ED9127
S11318F0FC9115971995811123C0CF5FA091DC222B
S1131900B091DD22ED91FC9111979481C917B0F249
S113191017C080E015C080E013C080E011C080E0F3
S11319200FC0982F907609F081CFA6CD982F90768E
S113193009F07CCFA2CE22E188E490E218CE81E0C7
S1131940DF91CF911F910F910895CF93DF931F9251
S11319501F92CDB7DEB7811126C090911024992330
S1131960F9F090912325911101C0FFCF9FB79A837D
S1131970F8942A81E2E2F5E29181915091832FBF9C
S11319800FC0909123259F3F09F4FFCF9FB7998300
S1131990F8942981E2E2F5E291819F5F91832FBF60
S11319A08093102405C090911024992351F3F8CF0B
S11319B00F900F90DF91CF9108950F93E8ECF4E02E
S11319C080818F7D808380818F7D8083E4EEF3E24C
S11319D002E005931092E6231092E72300E20693B7
S11319E000E40693ECEDF3E200E40693E2E1F5E2B1
S11319F01486158616861786128613861092CD23B2
S1131A000F9108950F9385E08093CD23E5EEF3E2E3
S1131A1004E00593EDEDF3E204E005930F910895DE
S1131A200F9383E08093CD231092E6231092E72353
S1131A30E4EEF3E202E006930F910895E0911E258F
S1131A40F0911F25309709F0199508950F93CF93BE
S1131A50DF938091CD23833019F4F0DFAEDF5EC0D5
S1131A608091C9239091CA23C0911C25D0911D2532
S1131A70C81BD90B71F52091CB233091CC23820F55
S1131A80931F8093CB239093CC23209118253091DE
S1131A9019258217930721F08091E422882341F0CD
S1131AA084E08093CD23ECEDF3E202E0069336C0AC
S1131AB0E0912025F0912125309799F019958823FC
S1131AC081F01092C9231092CA23C0911C25D09191
S1131AD01D25C034D10528F01092E422C0E4D0E0E2
S1131AE003C081E08093E422E0EDF3E2C68BD78B60
S1131AF08091C9239091CA2320911A2530911B25E6
S1131B00280F391F208F318FC80FD91FC093C923C5
S1131B10D093CA23E4EEF3E202E00693DF91CF917F
S1131B200F910895FC018181E82FE7708E2F90E0DA
S1131B30FC013197E730F105D0F48827E250FF4FDC
S1131B408F4F93C780E190E0089580E290E008957C
S1131B5080E490E0089580E890E0089580E091E0CA
S1131B60089580E092E008958FEF93E0089588E06F
S1131B7090E00895282F2F7030E0220F331F082E95
S1131B80000C990B8827990F881F9927820F931FA0
S1131B9002979C01220F331F220F331F220F331F82
S1131BA0820F931F8B599C4D08950F93CF9380916F
S1131BB0CC0480FF64C081E08093CC04ECEDF3E2BC
S1131BC000E80693E4EEF3E200E806938093CA0487
S1131BD0ECEDF3E200E106938091CD23882329F014
S1131BE08350823008F42ADFE8DE8091DE2390916E
S1131BF0DF23089709F045C088E0E9E8F3E2A2E1B1
S1131C00B5E201900D928A95E1F7E8ECF4E0808169
S1131C108062808380818062808315DCC82F81117B
S1131C2003C0F0DEC1E02EC08091122588236CF43D
S1131C301092CB231092CC231092C9231092CA2362
S1131C4082E08093CD2302DF1DC0809118259091FE
S1131C501925892B11F4E4DE15C01092CB231092C0
S1131C60CC231092C9231092CA2381E08093CD2300
S1131C70ECEDF3E202E0069300E2069303C0C0E059
S1131C8001C0C1E08C2FCF910F9108958F929F9244
S1131C90AF92BF92DF92EF92FF920F931F93CF9375
S1131CA0DF93D82E67DF8C01BD2CBB1CBB24BB1C6F
S1131CB0CD2DCF70D0E0CC0FDD1FCB0DD11DCE01CB
S1131CC0880F991F880F991F880F991F9C01245210
S1131CD03C4D7901C90126DF4C01BB2009F479C0D0
S1131CE0FE01EE0FFF1FEE0FFF1FEE0FFF1FE0536D
S1131CF0FC4D22893389D80115968D919C911697B4
S1131D00820F931F15968D939C93169713962D917E
S1131D103C9114978217930709F445C0281B390B8B
S1131D202115B4E03B0738F02FEF33E0C901B401CB
S1131D3088D6281B390BF801808181FF09C0C901AD
S1131D40B4017FD641E0892B09F040E0842F01C023
S1131D5080E0D8019C9180FB91F99C93FE01EE0FE9
S1131D60FF1FEE0FFF1FEE0FFF1FE053FC4D128A03
S1131D70138A2687378711962D913C9112971596D1
S1131D808D919C911697820F931FCC0FDD1FCC0F62
S1131D90DD1FCC0FDD1FC052DC4D88839983F70112
S1131DA002E00693E4C0D8018C9181FFCDC08D7F01
S1131DB08C93CC0FDD1FCC0FDD1FCC0FDD1FC05368
S1131DC0DC4D1A8A1B8A1E861F86F70102E00693E1
S1131DD0CEC0FE01EE0FFF1FEE0FFF1FEE0FFF1F21
S1131DE0E053FC4DA684B784D8018C9182FF19C0BE
S1131DF01196ED91FC91129715962D913C911697A1
S1131E0013968D919C911497B4011BD6B0E4DB9E7C
S1131E10B00111246B557D4DAC01CF01820F931F8E
S1131E202DD6F801258136812A0D3B1D2583368365
S1131E30838194818217930768F485839683CC0FFA
S1131E40DD1FCC0FDD1FCC0FDD1FC053DC4D8A8995
S1131E509B897AC0FE01EE0FFF1FEE0FFF1FEE0FEE
S1131E60FF1FE053FC4D428953894A155B0509F075
S1131E706BC02817390709F467C0AC01421B530B28
S1131E809A01211554E0350750F02FEF33E0C901D2
S1131E90B401D7D5D901A81BB90BCD0107C0C9011D
S1131EA0B401CFD5F901E81BF90BCF01FE01EE0F08
S1131EB0FF1FEE0FFF1FEE0FFF1FE053FC4D1686B2
S1131EC017868815990500F5D8018C9184608C9348
S1131ED0B0E4DB9EC00111248B559D4DFE01EE0F35
S1131EE0FF1FEE0FFF1FEE0FFF1FE052FC4D80831C
S1131EF09183CC0FDD1FCC0FDD1FCC0FDD1FC05332
S1131F00DC4D8A8A9B8A1CC0F8014181528125815B
S1131F103681240F351FFE01EE0FFF1FEE0FFF1F4A
S1131F20EE0FFF1FE052FC4D20833183CC0FDD1FE9
S1131F30CC0FDD1FCC0FDD1FC053DC4D8A8B9B8B78
S1131F40F70102E0069313C0D8018C9180FF0FC003
S1131F508E7F8C931796ED91FC911897309739F0FA
S1131F6015966D917C9116974D2D80E01995DF9112
S1131F70CF911F910F91FF90EF90DF90BF90AF90A2
S1131F809F908F9008951F93CF93DF931F92CDB7A7
S1131F90DEB78FB78983F894198181E0D6DCEAEC47
S1131FA0F4E080E4808380E28083E1ECF4E08081EB
S1131FB081608083A9ECB4E08C9182608C93E8EC1E
S1131FC0F4E08081806480838C9181608C93808133
S1131FD0806880831FBF0F90DF91CF911F91089578
S1131FE00F931F93CF93DF931F921F92CDB7DEB74A
S1131FF000E610E0F801108280E3CED4E0ECF4E0D7
S113200080818064808381E0F80180838FB78A8334
S1132010F8941A81E0EDF3E21586158A158E15A25F
S113202015A615AAE5E6F3E280818E7F8083EEE6AD
S1132030F3E280818E7F8083E7E7F3E280818E7F05
S11320408083E0E8F3E280818E7F80836AE170E040
S113205082E0E7D48F3F19F08093FA0403C08FE144
S11320608093FA046BE170E082E0DBD48F3F19F0D7
S11320708093FB0403C08FE18093FB04E0ECF4E065
S11320808081826080838081806880838081806198
S113209080838CED93E28683978380818062808342
S11320A08FEF8093C504E8ECF4E080818160808345
S11320B010921024809127258F3F09F4FFCF8FB70A
S11320C08983F8949981E2E2F5E285818F5F8583C3
S11320D09FBF59DF1FBF0F900F90DF91CF911F91CA
S11320E00F91089580E008958093C304089580912A
S11320F0C304089580910C2490910D24089580E0E8
S113210090E00895E2E1F5E2808791876287738722
S11321100895282F2F7030E0220F331F082E000C53
S1132120990B8827990F881F9927820F931FFC0109
S1132130EE0FFF1FEE0FFF1FEE0FFF1FE053FC4DCE
S11321402585207C09F069C06370613011F018F4B2
S113215004C020EC03C020E801C020E4403851054D
S1132160E9F050F440325105A9F040345105A1F092
S113217040315105D9F40CC0411532E0530791F0B8
S11321804F3F33E0530781F04115514079F408C0C3
S113219041E00DC042E00BC043E009C044E007C089
S11321A045E005C046E003C047E001C040E0FC0153
S11321B0EE0FFF1FEE0FFF1FEE0FFF1FE053FC4D4E
S11321C0158636E03487242B2587FC01EE0FFF1F8C
S11321D0EE0FFF1FEE0FFF1FE053FC4D2585207C03
S11321E0203C69F4FC01EE0FFF1FEE0FFF1FEE0F02
S11321F0FF1FE053FC4D25852770273081F0880FA1
S1132200991F880F991F880F991FFC01E053FC4DFB
S113221085858062858781E0089580E0089581E066
S11322200895E82FEF70F0E0EE0FFF1F082E000C6A
S1132230990B8827990F881F9927E80FF91FEE0F2C
S1132240FF1FEE0FFF1FEE0FFF1FE053FC4D8585B0
S113225082FB882780F908950F93282F2F7030E090
S1132260A901440F551F282F082E000C330B2227D9
S1132270330F221F3327240F351FA901440F551F85
S1132280440F551F440F551FFA01E452FC4D01E061
S11322900693FA01E053FC4D958592FF11C0FA01B3
S11322A0E053FC4D95859B7F958764DCFC01808120
S11322B080FF06C08E7F80830780F085E02D19950E
S11322C081E00F9108955F926F927F928F929F9217
S11322D0AF92BF92CF92DF92EF92FF920F931F9330
S11322E0CF93DF931F92CDB7DEB7782E662E4A01C7
S11322F0590140DC6C01572C551C5524551C872D65
S11323008F70E82EF12CEE0CFF1CE50CF11CF7018C
S1132310EE0FFF1FEE0FFF1FEE0FFF1FE053FC4DEC
S11323208585807C09F481C0F701EE0FFF1FEE0F55
S1132330FF1FEE0FFF1FE053FC4D8585807C803C22
S113234061F0F701EE0FFF1FEE0FFF1FEE0FFF1FEF
S1132350E053FC4D858582FD6AC08FB78983F8946C
S11323608981F601908190FF03C08FBF512C60C01A
S1132370F6019081916090838FBF81829282A382C3
S1132380B4821582168207831087611006C091E01B
S1132390A114B10419F090E001C091E0F60180812C
S11323A090FB81F98B7F8083552061F0F701EE0F5C
S11323B0FF1FEE0FFF1FEE0FFF1FE053FC4D128AAD
S11323C0138A2EC0F701EE0FFF1FEE0FFF1FEE0F53
S11323D0FF1FE053FC4D8585807C803CA1F4C70140
S11323E0880F991F880F991F880F991F84529C4D3D
S11323F099DBBC01C50125D3892B29F0F601808125
S11324008E7F808315C0F701EE0FFF1FEE0FFF1FB5
S1132410EE0FFF1FE053FC4D16861786128A138AAF
S1132420872D34DC5524539403C0512C01C0512C06
S1132430852D0F90DF91CF911F910F91FF90EF9019
S1132440DF90CF90BF90AF909F908F907F906F90D0
S11324505F900895FF920F931F93CF93DF93182FEC
S1132460F82EFF1CFF24FF1CC82FCF70D0E0CC0F28
S1132470DD1FCF0DD11D7EDBDC01FE01EE0FFF1F42
S1132480EE0FFF1FEE0FFF1FE452FC4D02E0059319
S11324908C9180FF22C08E7F8C931796ED91FC91D6
S11324A018973097D1F0FF2059F0CC0FDD1FCC0FD7
S11324B0DD1FCC0FDD1FC053DC4D6A897B890AC048
S11324C0CC0FDD1FCC0FDD1FCC0FDD1FC053DC4D47
S11324D06E857F85412F81E01995DF91CF911F9102
S11324E00F91FF900895CF93C82FB4DFEC2FEF70B6
S11324F0F0E0EE0FFF1F8C2FCC0F990B8827990F5C
S1132500881F9927E80FF91FEE0FFF1FEE0FFF1F1B
S1132510EE0FFF1FE053FC4D1586CF910895E82F71
S1132520EF70F0E0EE0FFF1F282F082E000C330B86
S11325302227330F221F3327E20FF31FEE0FFF1F53
S1132540EE0FFF1FEE0FFF1FE053FC4D95859460C7
S1132550958780DF81E008951F920F920FB60F9246
S1132560112408B60F9218BE09B60F9219BE0BB605
S11325700F921BBE0F932F933F934F935F936F93D1
S11325807F938F939F93AF93BF93EF93FF93809128
S1132590CB04882334F480E88093CA040E94F309AE
S11325A086C08091CB0482FF20C084E08093CA045B
S11325B08091E42386FF7BC08091CC0481FD77C0A9
S11325C0F4DA811174C08091CD23813011F428DABA
S11325D06EC0843009F06BC0E5EEF3E204E00593CD
S11325E0EDEDF3E204E0059362C08091CB0481FF3A
S11325F059C082E08093CA048091DC2386FF57C0CF
S11326008091CC0481FD53C0D0DA811150C08091F7
S1132610CD23823041F484E08093CD23ECEDF3E2CA
S113262002E0069344C0833009F041C0E5EEF3E2D2
S113263004E00593EDEDF3E204E0059338C080E196
S11326408093CA0481E006DF81E804DF82E002DFD0
S113265082E800DF0E94CC091092C304E0EDF3E2AB
S1132660158696E0948783E48587158A948B858BF9
S113267089E893E2808B918BA0D919C08091CB0417
S113268086FF06C080E48093CA0480E05ED90FC050
S11326908091CB0485FF0BC080E28093CA0481E063
S11326A054D905C08091CB0484FDC9CFE7CFFF91F5
S11326B0EF91BF91AF919F918F917F916F915F91B6
S11326C04F913F912F910F910F900BBE0F9009BE28
S11326D00F9008BE0F900FBE0F901F9018951F9279
S11326E00F920FB60F92112408B60F9218BE09B6B6
S11326F00F9219BE0AB60F921ABE0BB60F921BBEEA
S11327000F931F932F933F934F935F936F937F93F5
S11327108F939F93AF93BF93CF93DF93EF93FF93E5
S11327208091CC0481FD03C040DA8111C3C082E0F2
S11327308093CC048091C5048195880FECEDF3E27D
S1132740E81BF109208131812C5D334236952795B0
S11327503695279536952795822F869520FD02C0BC
S113276090E001C090E8890FE82FEF70F0E0EE0FE1
S1132770FF1F282F082E000C330B2227330F221F94
S11327803327E20FF31FDF01AA0FBB1FAA0FBB1FE2
S1132790AA0FBB1FA053BC4D1C969C9195FF8AC0E9
S11327A0EE0FFF1FEE0FFF1FEE0FFF1FE452FC4D55
S11327B000E20693811179C08091CD23843019F40D
S11327C03DD9FBD877C00091DE231091DF2380919F
S11327D01C2590911D25C091C923D091CA239E0127
S11327E0200F311F8217930718F48C010C1B1D0B4B
S11327F080911A2590911B25A80169E873E28C0F3A
S11328009D1F3CD1C00FD11FC093C923D093CA23AD
S11328100034110569F48091CB239091CC238C0F63
S11328209D1F20911825309119258217930780F058
S1132830E2E1F5E2C287D3870684F785E02D30977D
S113284029F01995811102C0DDD834C0E9D832C00D
S113285080911C2590911D25C817D907F9F4E091A2
S11328602025F0912125309711F4CCD823C0199557
S1132870811102C0C7D81EC02091CB233091CC2334
S11328808091C9239091CA23820F931F8093CB23F5
S11328909093CC231092C9231092CA23ECEDF3E257
S11328A002E0069300E2069305C0803811F4CED806
S11328B001C0ECD9FF91EF91DF91CF91BF91AF911E
S11328C09F918F917F916F915F914F913F912F9144
S11328D01F910F910F900BBE0F900ABE0F9009BE6F
S11328E00F9008BE0F900FBE0F901F901895CF93B6
S11328F0DF93CDB7DEB72597CDBFDEBF6CE170E0C7
S113290082E08FD08A836DE170E082E08AD089838F
S113291089819A81019621F480E493E289839A83E0
S113292089819A818B839C83E0E6F0E082838C81A9
S113293083838091510084FD0FC08FB78D83F894F9
S11329409D81E0E5F0E080E1858380818061808382
S11329509FBF818184FFFDCF64E080E490E06BD071
S11329602596CDBFDEBFDF91CF910895CF93DF933E
S11329701F92CDB7DEB79FB79983F8949981E82F5A
S1132980F0E0E059FF4F60958081682360839FBF2A
S11329900F90DF91CF910895CF93DF931F921F92F1
S11329A0CDB7DEB7863011F060E001C068E18091F8
S11329B0510081FD2AC08FB78A83F8949A81E0E59B
S11329C0F0E08081826080839FBF818181FFFDCFA1
S11329D08FB78983F8949981A0E5B0E016968C911D
S11329E01697897F16968C931697E0E6F0E080E8B8
S11329F085838BEB868316968C9116978460169646
S1132A008C938081816080839FBF636084E490E0C5
S1132A1012D060E480E0AADF0F900F90DF91CF9195
S1132A2008954091CA01E62FF72F8093CA0184913B
S1132A304093CA0108951BBEFC0128ED24BF6083A6
S1132A400895AA1BBB1B51E107C0AA1FBB1FA617F1
S1132A50B70710F0A61BB70B881F991F5A95A9F743
S1132A6080959095BC01CD010895EE0FFF1F881F3E
S1132A708BBF0790F691E02D1BBE1994FB01DC017E
S1132A8002C001900D9241505040D8F70895CF9361
S1132A90DF93CDB7DEB7AE014A5F5F4FFA016191B4
S1132AA07191AF0180912A2590912B2538D0DF9127
S1132AB0CF91089560912A2570912B252EC20F93F2
S1132AC01F93CF93DF93E0912A25F0912B25238147
S1132AD021FF1BC08C01D0E0C0E0F80181918F017F
S1132AE060912A2570912B25DB011896ED91FC91BC
S1132AF01997882331F01995892B79F3DFEFCFEFFC
S1132B00ECCF8AE01995892B19F08FEF9FEF02C063
S1132B108D2F9C2FDF91CF911F910F9108952F92AC
S1132B203F924F925F926F927F928F929F92AF9259
S1132B30BF92CF92DF92EF92FF920F931F93CF93A6
S1132B40DF93CDB7DEB72C97CDBFDEBF7C016B0121
S1132B508A01FC0116821782838181FFB0C1CE01F4
S1132B6001964C01F7019381F60193FD859193FF42
S1132B7081916F01882309F49EC1853239F493FD54
S1132B80859193FF81916F01853221F4B70190E023
S1132B90C4D1E8CF512C312C20E02032A0F48B3268
S1132BA069F030F4803259F0833269F420612CC02A
S1132BB08D3239F0803339F4216026C022602460DC
S1132BC023C0286021C027FD27C030ED380F3A30DC
S1132BD078F426FF06C0FAE05F9E300D1124532ED0
S1132BE013C08AE0389E300D1124332E20620CC0AD
S1132BF08E3221F426FD5FC1206406C08C3611F4A8
S1132C00206802C0883641F4F60193FD859193FF54
S1132C1081916F018111C1CF982F9F7D955493307D
S1132C2028F40C5F1F4FFFE3F9830DC0833631F0A6
S1132C30833771F0833509F057C021C0F8018081D2
S1132C4089830E5F1F4F44244394512C540114C0B4
S1132C503801F2E06F0E711CF801A080B18026FFEC
S1132C6003C0652D70E002C06FEF7FEFC5012C87B4
S1132C7049D12C0183012C852F77222E16C03801CF
S1132C80F2E06F0E711CF801A080B18026FF03C032
S1132C90652D70E002C06FEF7FEFC5012C8727D14F
S1132CA02C012C852068222E830123FC19C0832D3E
S1132CB090E048165906A0F4B70180E290E02DD1C7
S1132CC03A94F5CFF50127FC859127FE81915F01A8
S1132CD0B70190E022D131103A94F1E04F1A510833
S1132CE04114510479F7DEC0843611F0893631F588
S1132CF0F80127FF07C060817181828193810C5F95
S1132D001F4F08C060817181072E000C880B990B3E
S1132D100E5F1F4F2F76722E97FF09C090958095F6
S1132D20709561957F4F8F4F9F4F2068722E2AE0D8
S1132D3030E0A4012AD1A82EA81843C0853729F46D
S1132D402F7EB22E2AE030E025C0F22FF97FBF2E6D
S1132D508F36C1F018F4883579F0ADC0803719F09A
S1132D60883721F0A8C02F2F2061B22EB4FE0DC0E9
S1132D708B2D8460B82E09C024FF0AC09F2F966053
S1132D80B92E06C028E030E005C020E130E002C0E2
S1132D9020E132E0F801B7FE07C0608171818281D1
S1132DA093810C5F1F4F06C06081718180E090E0C9
S1132DB00E5F1F4FA401E9D0A82EA818FB2DFF77A2
S1132DC07F2E76FE0BC0372D3E7FA51450F474FE83
S1132DD00AC072FC08C0372D3E7E05C0BA2C372DC0
S1132DE003C0BA2C01C0B52C34FF0DC0FE01EA0D9E
S1132DF0F11D8081803311F4397E09C032FF06C091
S1132E00B394B39404C0832F867809F0B39433FD4C
S1132E1012C030FF06C05A2CB31418F4530C5B18BC
S1132E20B32CB31460F4B70180E290E03C8775D012
S1132E30B3943C85F6CFB31410F43B1801C0312C85
S1132E4034FF11C0B70180E390E03C8766D03C8535
S1132E5032FF16C031FD03C088E790E002C088E568
S1132E6090E0B7010CC0832F867851F031FF02C087
S1132E708BE201C080E237FD8DE2B70190E04DD0D6
S1132E80A51430F4B70180E390E047D05A94F8CF0A
S1132E90AA94F401EA0DF11D8081B70190E03DD0C0
S1132EA0A110F6CF332009F45DCEB70180E290E0A3
S1132EB034D03A94F7CFF7018681978102C08FEF1F
S1132EC09FEF2C96CDBFDEBFDF91CF911F910F9165
S1132ED0FF90EF90DF90CF90BF90AF909F908F9036
S1132EE07F906F905F904F903F902F900895FC01DA
S1132EF00590615070400110D8F7809590958E0F21
S1132F009F1F0895FC016150704001900110D8F793
S1132F10809590958E0F9F1F08950F931F93CF93C5
S1132F20DF93FB01238121FD03C08FEF9FEF28C0B6
S1132F3022FF16C0468157812481358142175307E9
S1132F4044F4A081B1819D012F5F3F4F20833183E1
S1132F508C93268137812F5F3F4F2683378310C0A0
S1132F60EB01092F182F0084F185E02D1995892B89
S1132F70E1F68E819F8101968E839F83812F902F0E
S1132F80DF91CF911F910F910895FA01AA2728305C
S1132F9051F1203181F1E8946F936E7F6E5F7F4F22
S1132FA08F4F9F4FAF4FB1E03ED0B4E03CD0670F9E
S1132FB0781F891F9A1FA11D680F791F8A1F911DF1
S1132FC0A11D6A0F711D811D911DA11D20D009F441
S1132FD068943F912AE0269F11243019305D319383
S1132FE0DEF6CF010895462F4770405D4193B3E06C
S1132FF00FD0C9F7F6CF462F4F70405D4A3318F013
S1133000495D31FD4052419302D0A9F7EACFB4E0C3
S1133010A6959795879577956795BA95C9F700977B
S11330206105710508959B01AC010A2E069457951C
S1133030479537952795BA95C9F7620F731F841F73
S10D3040951FA01D0895F894FFCF1A
S113304A00000002000000002B0100000000240719
S113305AA40658055A058506A70552055C055A05AE
S113306A000000030000000000000000000000004F
S113307A0000000000000000000000000000000042
S113308A0000000000000000444959205265666CA3
S113309A6F77204F76656E20563100546865416912
S11330AA6D6C657373456C656374726F6E000403AB
S11330BA0904C4207820000080207C2018200E20D7
S11330CA09024300020100C00009040000010202CF
S11330DA010005240010010424020205240600014B
S11330EA05240103010705820340001009040100B5
S11330FA020A0000000705810240000007050202D7
S113310A400000001201000202000040EB03042404
S113311A00010102030125303278200054657374DA
S113312A696E672057726974650D0053746174750A
S113313A733A203078253032780D0A00526561647A
S113314A2032353620627974657320746F20636F78
S113315A6E6669726D2065726173650D00526561F0
S113316A64696E6720436869702049640D0045727A
S113317A6173696E6720436869700D005265616402
S113318A696E6720307825303278203078253032DD
S113319A7820256C752063686172730D0A00436D8B
S11331AA643A203078253032780D0A004C656E3A3C
S11331BA20256C750D0A00506F7320256C750D0A55
S11331CA00537461727465640D000D0A446F6E6570
S11331DA2052656164696E670D0031322E2E2E45C8
S10531EA460099
S9030000FC
